:020000040800F2
:1000000000000220DDAF0B08D17A0B08D57A0B086F
:10001000E57A0B08F57A0B08057B0B080000000059
:10002000000000000000000000000000157B0B082D
:10003000197B0B08000000001D7B0B08217B0B08BF
:1000400039B00B0839B00B0839B00B0839B00B08C0
:1000500041860B0839B00B0821810B0829810B0858
:1000600031810B0839810B0841810B0839B00B082D
:1000700039B00B0839B00B0839B00B0839B00B0890
:1000800039B00B0839B00B0839B00B0839B00B0880
:1000900039B00B0839B00B0839B00B0849810B088F
:1000A00039B00B0839B00B0839B00B0839B00B0860
:1000B00039B00B08C98E0B0839B00B0839B00B08E2
:1000C00039B00B0839B00B0839B00B0839B00B0840
:1000D00039B00B08357B0B08617C0B088D7D0B0854
:1000E00051810B0839B00B080000000039B00B0833
:1000F000817E0B0839B00B0839B00B0839B00B08FA
:1001000039B00B0839B00B0839B00B0839B00B08FF
:1001100039B00B08A57E0B0855810B0829820B0806
:1001200039B00B0839B00B0839B00B0839B00B08DF
:1001300039B00B0839B00B0839B00B0839B00B08CF
:1001400000000000000000000000000000000000AF
:1001500039B00B0839B00B0839B00B08D17F0B0848
:1001600039B00B0839B00B0839B00B0839B00B089F
:1001700039B00B0839B00B0839B00B08000000008B
:1001800039B00B0839B00B0839B00B0839B00B087F
:1001900039B00B0839B00B0839B00B0839B00B086F
:1001A00039B00B0839B00B0839B00B0839B00B085F
:1001B00039B00B0839B00B0839B00B0839B00B084F
:1001C00039B00B0839B00B08FD800B0809810B080A
:1001D00039B00B0815810B0839B00B0839B00B0882
:1001E00039B00B0839B00B0839B00B0839B00B081F
:1001F00039B00B0839B00B0839B00B0839B00B080F
:1002000039B00B0839B00B0839B00B0839B00B08FE
:1002100039B00B081D860B0839B00B0839B00B0834
:1002200039B00B0839B00B0839B00B0800000000DA
:1002300039B00B0839B00B080000000039B00B08CA
:1002400039B00B0839B00B0839B00B0839B00B08BE
:1002500039B00B0839B00B0839B00B0839B00B08AE
:1002600039B00B0839B00B0839B00B0839B00B089E
:1002700039B00B0839B00B0839B00B08000000008A
:1002800039B00B0839B00B0839B00B08000000007A
:080290000000000039B00B086A
:1002A000000000000000000000000000000000004E
:1002B000000000000000000000000000000000003E
:1002C000000000000000000000000000000000002E
:1002D000000000000000000000000000000000001E
:020000040804EE
:1002A00045750A08B1720A08D5720A08098006085D
:1002B000A96D06087D7106087561060805630608C4
:1002C00035F6070879EE0708F9740A0839A908080D
:1002D000B1A8080811A50808B0200020F8200020C7
:1002E00051E30508B8200020D4A9002068A7002009
:1002F00064A70020F1740A084DF60708F0B8002042
:1003000004C7002024C7002010210020B4200020B2
:1003100021F00708758E0508448D0020588D0020B7
:1003200014210020398E0508A9060808E8B6002027
:10033000488D00204C8D0020508D0020548D0020D1
:10034000090A0C08B9FC0508F10B0608458E0508DA
:1003500004F7002010B5054C237833B9044B13B1D2
:100360000448AFF300800123237010BD802A0020D1
:1003700000000000DC230C0808B5034B1BB1034947
:100380000348AFF3008008BD00000000842A00206D
:10039000DC230C08EC46A0E8F05F4FF0000070474B
:1003A000B0E8F05FE546080008BF0120704700BFD5
:1003B00010F8012B11F8013B012A28BF9A42F7D00F
:1003C000D01A7047034613F8012B002AFBD1181AE4
:1003D000013870470000000000000000000000002D
:1003E00001F0FF01102A2BDB10F0070F08D010F8E6
:1003F000013B013A8B422DD010F0070F42B3F6D1EA
:10040000F0B441EA012141EA014122F007047FF002
:1004100000070023F0E80256083C85EA010586EA59
:10042000010685FA47F5A3FA87F586FA47F6A5FA95
:1004300087F68EB9EED1F0BC01F0FF0102F00702A1
:1004400032B110F8013B013A83EA010313B1F8D14C
:100450000020704701387047002D06BF354603382D
:10046000073815F0010F07D1013015F4807F02BF66
:10047000013015F4C03F0130F0BC0138704700BFB7
:1004800081F0004102E000BF83F0004330B54FEA45
:1004900041044FEA430594EA050F08BF90EA020FB2
:1004A0001FBF54EA000C55EA020C7FEA645C7FEA45
:1004B000655C00F0E2804FEA5454D4EB5555B8BF68
:1004C0006D420CDD2C4480EA020281EA030382EAD9
:1004D000000083EA010180EA020281EA0303362D6B
:1004E00088BF30BD11F0004F4FEA01314FF4801C3E
:1004F0004CEA113102D0404261EB410113F0004F50
:100500004FEA03334CEA133302D0524263EB430306
:1005100094EA050F00F0A780A4F10104D5F1200EA4
:100520000DDB02FA0EFC22FA05F2801841F10001FF
:1005300003FA0EF2801843FA05F359410EE0A5F1D3
:1005400020050EF1200E012A03FA0EFC28BF4CF004
:10055000020C43FA05F3C01851EBE37101F00045BA
:1005600007D54FF0000EDCF1000C7EEB00006EEBC7
:100570000101B1F5801F1BD3B1F5001F0CD3490851
:100580005FEA30004FEA3C0C04F101044FEA4452A8
:1005900012F5800F80F09A80BCF1004F08BF5FEA2F
:1005A000500C50F1000041EB045141EA050130BD0F
:1005B0005FEA4C0C404141EB0101013C28BFB1F521
:1005C000801FE9D291F0000F04BF01460020B1FA6C
:1005D00081F308BF2033A3F10B03B3F120020CDA3F
:1005E0000C3208DD02F1140CC2F10C0201FA0CF01D
:1005F00021FA02F10CE002F11402D8BFC2F1200C82
:1006000001FA02F120FA0CFCDCBF41EA0C01904037
:10061000E41AA2BF01EB0451294330BD6FEA040480
:100620001F3C1CDA0C340EDC04F11404C4F120026B
:1006300020FA04F001FA02F340EA030021FA04F37D
:1006400045EA030130BDC4F10C04C4F1200220FAD4
:1006500002F001FA04F340EA0300294630BD21FA12
:1006600004F0294630BD94F0000F83F4801306BFD8
:1006700081F480110134013D4EE77FEA645C18BFCC
:100680007FEA655C29D094EA050F08BF90EA020F63
:1006900005D054EA000C04BF1946104630BD91EA5B
:1006A000030F1EBF0021002030BD5FEA545C05D15E
:1006B0004000494128BF41F0004130BD14F580049D
:1006C0003CBF01F5801130BD01F0004545F0FE4111
:1006D00041F470014FF0000030BD7FEA645C1ABF46
:1006E000194610467FEA655C1CBF0B46024650EA7D
:1006F000013406BF52EA033591EA030F41F40021A9
:1007000030BD00BF90F0000F04BF0021704730B52E
:100710004FF4806404F132044FF000054FF0000103
:1007200050E700BF90F0000F04BF0021704730B5C4
:100730004FF4806404F1320410F0004548BF404299
:100740004FF000013EE700BF42004FEAE2014FEAEE
:1007500031014FEA02701FBF12F07F4393F07F4FC9
:1007600081F06051704732F07F4208BF704793F0CC
:100770007F4F04BF41F40021704730B54FF46074DF
:1007800001F0004521F000411CE700BF50EA0102E2
:1007900008BF704730B54FF000050AE050EA01028B
:1007A00008BF704730B511F0004502D5404261EBFB
:1007B00041014FF4806404F132045FEA915C3FF43C
:1007C000D8AE4FF003025FEADC0C18BF03325FEAD9
:1007D000DC0C18BF033202EBDC02C2F1200300FA8A
:1007E00003FC20FA02F001FA03FE40EA0E0021FAAF
:1007F00002F11444BDE600BF80F0004002E000BFFB
:1008000081F0004142001FBF5FEA410392EA030FFB
:100810007FEA226C7FEA236C6AD04FEA1262D2EB45
:100820001363C1BFD218414048404140B8BF5B424A
:10083000192B88BF704710F0004F40F4000020F0E3
:100840007F4018BF404211F0004F41F4000121F0F9
:100850007F4118BF494292EA030F3FD0A2F1010243
:1008600041FA03FC10EB0C00C3F1200301FA03F181
:1008700000F0004302D5494260EB4000B0F5000FA4
:1008800013D3B0F1807F06D340084FEA310102F163
:100890000102FE2A51D2B1F1004F40EBC25008BF15
:1008A00020F0010040EA03007047490040EB0000DF
:1008B000013A28BFB0F5000FEDD2B0FA80FCACF1E0
:1008C000080CB2EB0C0200FA0CF0AABF00EBC2500D
:1008D00052421843BCBFD0401843704792F0000FFB
:1008E00081F4000106BF80F400000132013BB5E74E
:1008F0004FEA41037FEA226C18BF7FEA236C21D0C4
:1009000092EA030F04D092F0000F08BF0846704728
:1009100090EA010F1CBF0020704712F07F4F04D1F6
:10092000400028BF40F00040704712F100723CBF09
:1009300000F50000704700F0004343F0FE4040F433
:10094000000070477FEA226216BF08467FEA2363F1
:100950000146420206BF5FEA412390EA010F40F4DC
:10096000800070474FF0000304E000BF10F0004328
:1009700048BF40425FEA000C08BF704743F096430F
:1009800001464FF000001CE050EA010208BF70472A
:100990004FF000030AE000BF50EA010208BF7047B1
:1009A00011F0004302D5404261EB41015FEA010CC6
:1009B00002BF84460146002043F0B64308BFA3F1BE
:1009C0008053A3F50003BCFA8CF2083AA3EBC253A0
:1009D00010DB01FA02FC634400FA02FCC2F12002BF
:1009E000BCF1004F20FA02F243EB020008BF20F0F6
:1009F0000100704702F1200201FA02FCC2F120025C
:100A000050EA4C0021FA02F243EB020008BF20EA50
:100A1000DC7070477BB972B90029BEBF00204FF06F
:100A2000004106E008BF00281CBF6FF000414FF0F6
:100A3000FF3000F019BAADF1080C6DE904CE0029C1
:100A400009DB002B1ADB00F0A7F8DDF804E0DDE994
:100A5000022304B07047404261EB4101002B1BDBD5
:100A600000F09AF8DDF804E0DDE9022304B040422A
:100A700061EB4101524263EB43037047524263EB27
:100A8000430300F089F8DDF804E0DDE9022304B057
:100A9000404261EB41017047524263EB430300F077
:100AA0007BF8DDF804E0DDE9022304B0524263EB99
:100AB0004303704753B94AB9002908BF00281CBF37
:100AC0004FF0FF314FF0FF3000F0CEB9ADF1080C20
:100AD0006DE904CE00F060F8DDF804E0DDE9022302
:100AE00004B0704708B502460B4643EC172BB5EE31
:100AF000C07BF1EE10FA03D4BDE8084000F02CB83A
:100B0000B1EE477B51EC170B00F026F8404261EB49
:100B1000410108BD000000009FED0B6B07EE900A3D
:100B20009FED0B5BB7EEE77A27EE066BBCEEC66B6C
:100B3000B8EE464BA4EE457BFCEEC77B16EE101AD2
:100B400017EE900A704700BF000000000000F03D63
:100B5000000000000000F0419FED0B6B41EC170B13
:100B60009FED0B5B27EE066BBCEEC66BB8EE464BFB
:100B7000A4EE457BFCEEC77B16EE101A17EE900A2A
:100B8000704700BFAFF30080000000000000F03DA0
:100B9000000000000000F0412DE9F047089D0446E8
:100BA0008E46002B4DD18A42944669D9B2FA82F220
:100BB00052B101FA02F3C2F1200120FA01F10CFA5C
:100BC00002FC41EA030E94404FEA1C48210CBEFB94
:100BD000F8F61FFA8CF708FB16E341EA034306FB1D
:100BE00007F199420AD91CEB030306F1FF3080F0AC
:100BF0001F81994240F21C81023E63445B1AA4B2F9
:100C0000B3FBF8F008FB103344EA034400FB07F79A
:100C1000A7420AD91CEB040400F1FF3380F00A81DB
:100C2000A74240F207816444023840EA0640E41BD0
:100C300000261DB1D4400023C5E900433146BDE87C
:100C4000F0878B4209D9002D00F0EF800026C5E91E
:100C5000000130463146BDE8F087B3FA83F6002E36
:100C60004AD18B4202D3824200F2F980841A61EBAE
:100C7000030301209E46002DE0D0C5E9004EDDE7CC
:100C800002B9FFDEB2FA82F2002A40F09280A1EBB4
:100C90000C014FEA1C471FFA8CFE0126200CB1FB09
:100CA000F7F307FB131140EA01410EFB03F0884202
:100CB00008D91CEB010103F1FF3802D2884200F28F
:100CC000CB804346091AA4B2B1FBF7F007FB101121
:100CD00044EA01440EFB00FEA64508D91CEB0404BF
:100CE00000F1FF3102D2A64500F2BB800846A4EB1A
:100CF0000E0440EA03409CE7C6F12007B34022FA05
:100D000007FC4CEA030C20FA07F401FA06F31C4333
:100D1000F9404FEA1C4900FA06F3B1FBF9F8200C40
:100D20001FFA8CFE09FB181140EA014108FB0EF086
:100D3000884202FA06F20BD91CEB010108F1FF3AD6
:100D400080F08880884240F28580A8F102086144E2
:100D5000091AA4B2B1FBF9F009FB101144EA0141F0
:100D600000FB0EFE8E4508D91CEB010100F1FF349B
:100D70006CD28E456AD90238614440EA0840A0FB33
:100D80000294A1EB0E01A142C846A64656D353D009
:100D90005DB1B3EB080261EB0E0101FA07F722FA2D
:100DA00006F3F1401F43C5E9007100263146BDE856
:100DB000F087C2F12003D8400CFA02FC21FA03F3B9
:100DC000914001434FEA1C471FFA8CFEB3FBF7F03A
:100DD00007FB10360B0C43EA064300FB0EF69E425F
:100DE00004FA02F408D91CEB030300F1FF382FD2F8
:100DF0009E422DD9023863449B1B89B2B3FBF7F6A0
:100E000007FB163341EA034106FB0EF38B4208D978
:100E10001CEB010106F1FF3816D28B4214D9023EB9
:100E20006144C91A46EA004638E72E46284605E7D7
:100E30000646E3E61846F8E64B45A9D2B9EB0208A8
:100E400064EB0C0E0138A3E74646EAE7204694E738
:100E50004046D1E7D0467BE7023B614432E730466B
:100E600009E76444023842E7704700BF38B50E4DC9
:100E70002B780BB9012038BD04464FF47A700B4A29
:100E8000B0FBF3F31068B0FBF3F000F0DBFF0F2CC6
:100E9000F0D80028EED1002221464FF0FF3000F0BC
:100EA00071FF00206C6038BD000000209C280020ED
:100EB00010B50320124C00F053FF03F0BFFB114BA1
:100EC00011499A699B69C2F3032203F00F038A5CFC
:100ED000CB5C02F01F020D4903F01F03D04020FA43
:100EE00003F3086000202360FFF7C0FF10B1012466
:100EF000204610BD044675F08FFE204610BD00BF91
:100F0000A028002000440258B02D0E089C28002084
:100F1000034A044B11681B780B441360704700BFF1
:100F20009C2A002000000020014B1868704700BF79
:100F30009C2A002038B50446FFF7F6FF0546631CDF
:100F400002D0044B1B781C44FFF7EEFF431BA34267
:100F5000FAD338BD00000020014B1868000C704720
:100F60000010005C3E4A036893422DE9F0410646BA
:100F70000C4655D002F58072934251D0394A3569FA
:100F80009768082D07F01F070AD0092F4AD840F2AA
:100F90002121F940C90745D5DB68DA0746D4042585
:100FA000FFF7C2FF8046326801E0631C27D1136857
:100FB0002B42FAD0736D43F400737365D36813F456
:100FC000406F0FD1737D6BB9136818070AD5736D25
:100FD00023F480737365736DD90403D4736D43F088
:100FE00001037365204B9A422BD0D068082D24D082
:100FF00010F4804031D10C231360BDE8F081FFF77D
:1010000093FFA0EB0800A04201D8002CCBD1736D58
:101010000022032043F0040386F850207365ECE7B8
:10102000124AACE7936813F4404FB8D0736D0120B7
:1010300043F020037365BDE8F08100201560BDE832
:10104000F081092F02D9064BD868CFE740F221235F
:1010500023FA07F7FB07C8D4F5E70020BDE8F081C5
:101060000020024000630258002102400023024099
:101070000368186C704700BFF0B5002283B001927E
:1010800090F85020012A00F02181034601201A68BF
:1010900083F850009468660700F19A800C68C4F3E6
:1010A0001305002D40F09D80C4F38464A040D669F0
:1010B0004FF01F0E4D6830434FEA951CD06105F08C
:1010C0001F000CF00C0C02F1300584400EFA00FEFB
:1010D0005CF8050020EA0E0004434CF805409068D7
:1010E00010F0040F906859D110F0080056D10D6827
:1010F000072402F11406BE4F4FEAD55CC5F3045530
:101100000CF0040C04FA05FE8C6804FA05F55CF892
:10111000064024EA0E042C434CF806403C6804F0D8
:101120007044B4F1805F00F02381D468D668E5068E
:1011300040F1CF8076084C6906F0080604FA06F6FE
:101140000F69042F00F0EB8002F160050C6855F880
:1011500027C004F0F8440CF0004C44EA0C0434437B
:1011600045F827404C7E0E69012C55F826400CBFEF
:101170004FF00047002724F000443C4345F8264048
:101180000D7E0C69012D04D104F01F044FF40060A2
:10119000A040146924F4F044204310619068C4070F
:1011A00014D4CE68086806F01807924CD2F8C050E4
:1011B000FC40C0F31307044025EA07052C43C2F89E
:1011C000C0408D4CA64243D0002814DB002003E031
:1011D0005A6D42F020025A65002283F8502003B075
:1011E000F0BD94FAA4F5B5FA85F5C4F3846405F06E
:1011F0001F05A8405BE781498A4200F0818001F524
:1012000080718A427CD07E4D7E4CA968A46801F032
:10121000E076E44304F00104002C00F0B1807A4C45
:10122000A04200F0F980794CA04200F01781784C80
:10123000A042CBD14902C9D472498A42C6D1AA6818
:10124000002022F0E072324342F48002AA60C3E739
:10125000002F45D090FAA0F4B4FA84F4013404F0DD
:101260001F04092C00F2A18090FAA0F4B4FA84F4CF
:1012700090FAA0F5B5FA85F5013401260135A406EA
:1012800005F01F0504F0F84406FA05F52C4390FA22
:10129000A0F0B0FA80F0304400F01F0000EB4000F6
:1012A00000052043C60D02F11405C0F304500724C5
:1012B00006F0040604FA00F7745924EA07048F685C
:1012C00007FA00F02043705108687DE7022003B060
:1012D000F0BDC6F382064C69760004FA06F62FE7E5
:1012E000800E441C04F01F06092E4FD8A4060120CE
:1012F00004F0F844B040044306EB46000005D0E794
:101300003E4C444D04F58074A96854F8F86CA46808
:10131000344301F0E076E44304F001047CE7106E0E
:101320000D6800F0F840AC06B0EB856F03D1106E8D
:1013300020F000401066506E00F0F840844203D167
:10134000506E20F000405066906E00F0F8408442ED
:1013500003D1906E20F000409066D06E00F0F8400F
:1013600084427FF41BAFD06E20F00040D06615E7BA
:10137000D6684C69C6F38206760004FA06F6DFE604
:101380005A6D012042F020025A6525E706EB46001F
:10139000A50601241E3805F0F84504FA06F60005F6
:1013A000354340F0007028437CE790FAA0F5B5FA89
:1013B00085F590FAA0F4B4FA84F4013501260134DD
:1013C000AD0604F01F0405F0F84506FA04F42543C1
:1013D00090FAA0F4B4FA84F4344404F01F0404EB4B
:1013E0004404A4F11E00000540F00070DBE700BFDC
:1013F0000010005CFFFF0F000000FF4700200240CC
:101400000063025800600258000084CB000052C7FD
:101410000000B8CF0023024008023FF5D7AE1749BD
:101420008A427FF4D3AE164AA9681268154821F0A3
:10143000E07192093143A0FB020241F400019209DC
:10144000A96052000192019A002A3FF4BFAE019AAE
:10145000013A0192019A002AF9D1B7E611F08070A1
:101460007FF4B4AE05498A427FF4B0AEAA6822F098
:10147000E072324342F08072AA60ADE6006002582A
:101480009C280020632D3E0503689A6812F0040F23
:101490009A6870B5044603D1120701D4002070BDCC
:1014A000DA68950104D5A08A40F2011290421AD060
:1014B00002299A683ED0550708D59A68900705D446
:1014C00098682C4A024042F010029A60012919D013
:1014D0009A68120702D59A68900732D5032914BF7B
:1014E00004260C260FE01A68500606D4224A01E0B2
:1014F000013A16D019684906FAD540221A609A684E
:10150000560725D40426FFF70FFD054604E0FFF734
:101510000BFD431B052B04D823689B683342F6D18F
:10152000BCE7636D012043F010036365A36D0343C3
:10153000A36570BD150702D59A68920713D50826D2
:10154000E1E798680B4A024042F020029A60C5E742
:101550009A689607D6D499680426064A0A4042F04B
:1015600010029A60CFE79968024A0A4042F02002CE
:101570009A60E4E7C0FFFF7F00DC0C0003689A6814
:10158000D20701D50020704799681F4A114270B5F3
:10159000044608D0636D012043F010036365A36D1A
:1015A0000343A36570BD9968184A0A4042F00102DE
:1015B0009A60FFF7B9FC2368154A054693421AD092
:1015C00002F58072934216D0124A92680F4E0DE0D7
:1015D0009A68D10704D49A68324042F001029A60B6
:1015E000FFF7A2FC431B022BD4D823681A68D2074A
:1015F000EED5002070BD084A9268D006E6D0074AB2
:101600009342E3D1F5E700BF3F000080C0FFFF7FBA
:1016100000200240006302580023024000210240E3
:10162000394A0368934270B5044646D002F5807289
:10163000934242D0354A96689D6815F0040542D120
:1016400094F85030012B3ED00123204684F85030CE
:10165000FFF794FF002838D1636D06F01F062C4A6F
:101660001A40236842F4807262652A4A934245D048
:101670001946626D22F480126265626D12F4805226
:1016800040D0A26D22F00602A2651C228B421A6095
:101690004FF0000284F8502020D0092E18D9636D35
:1016A00043F480136365CB689B0105D5636D23F418
:1016B000405343F48053636570BD174A96689D6834
:1016C00015F00405BCD0022070BD84F8505070BDE8
:1016D00040F2212222FA06F6F507E0D5DA689201F7
:1016E00005D5626D22F4405242F4805262659968D9
:1016F0000A4A0A4042F004029A6070BD0249002E74
:10170000B7D0BAE7A265C0E70020024000630258E4
:10171000FEF0FFFF0021024000230240C0FFFF7FD8
:1017200038B503689A68910702D59B68002038BDD8
:101730009A68D20723D59A68044602F00D02012A5E
:1017400008D0636D012043F010036365A36D03436C
:10175000A36538BD986803210A4A024042F002029C
:101760009A601960FFF7E0FB054604E0FFF7DCFB39
:10177000401B0228E5D823689B68DB07F6D40020CD
:1017800038BD00BFC0FFFF7F38B5002800F0AE8035
:10179000436D0446032143F002034365FFF774FEE3
:1017A00023680546DA6842F40012DA60002800F087
:1017B00087805968514A52480A4040F2FF715A6086
:1017C000196099684F4A21F0A0419960996841F0E9
:1017D00000519960D96801F08021D960D96841F041
:1017E0000041D96019690A4047491A615A6902F0F3
:1017F00040425A619A6902F078429A611A6A02F08C
:101800007C421A625A6A02F07C425A62D3F8B020D3
:1018100002F07C42C3F8B020D3F8B42002F07C423E
:10182000C3F8B420D3F8B82002F07C42C3F8B82043
:10183000D3F8BC2002F07C42C3F8BC201A6B1140E4
:101840001963596B014059639A6B304902409A639E
:10185000DA6B11400022D963196E1A66596E5A6606
:10186000996E9A66D96EDA662949D3F8A0200A40A3
:10187000C3F8A020D3F8A4200A40C3F8A420D3F8CA
:10188000C0200A402349C3F8C0208B42D3F8C420AB
:1018900002F0F822C3F8C4201BD01F4A934218D08C
:1018A0001E4B9B68DB0724D5204675F0B3F9002357
:1018B0002846A36584F850306365C4E9173338BD02
:1018C0002046FFF72DFF0546A8B90122236862656F
:1018D0006FE7104A104B92689B681343DA07E3D412
:1018E0000F4A91680F4B0B409360DDE701252846B6
:1018F00038BD0D4AF5E723685BE700BF00F8FFFF3E
:10190000200882E01CF800FC300882E020F8FFFF8D
:101910000000F0FF00200240002102400060025859
:1019200000230240E03000FE0063025838B5564AFA
:1019300004460368934225D002F58072934221D079
:10194000524B9B6813F4403F21D002F0C3FF636801
:101950000546B3F5003F00F08680B3F5403F6AD0FE
:10196000B3F5803F7FD0FFF7F7FA41F203039842C7
:101970004AD8474B9D4229D92268936843F4807323
:10198000936038BD434B9B6813F4403FDDD14FF467
:10199000002004F091F863680546B3F5101F6CD081
:1019A00008D8B3F5E01F50D016D9B3F5001FDAD12F
:1019B0004509D8E7B3F5201F45D0B3F5301FD2D184
:1019C000FFF7CAFA41F20303984240D822689368AD
:1019D00023F48073936038BDB3F5801F06D00AD915
:1019E000B3F5A01F02D0B3F5C01FBCD19B0C5B00A8
:1019F000B5FBF3F5B7E7B3F5002FF7D023F40022DA
:101A0000B2F5802FF2D0AEE7234B9D4205D8226875
:101A1000936823F44073936038BD204B9D421AD9DC
:101A20001F4B22689D42936829D823F4407343F4E6
:101A30000073936038BD8508FFF78EFA41F2030307
:101A40009842E1D895E7C5098DE705098BE7124B68
:101A5000B3EB152FDBD22268936823F4407343F471
:101A60008073936038BD1B0CB5FBF3F5FFF774FA78
:101A700041F203039842C7D87BE7850973E743F433
:101A80004073936038BD00BF0020024000630258DD
:101A9000002D31010023024021BCBE0041787D01B0
:101AA00081F0FA0270B5002382B00193002800F0A3
:101AB000D080456D0446002D00F0BA8022689368FE
:101AC0009D0003D59168714B0B4093609368D800DB
:101AD00015D46F4B90686F491B6801406E489B0995
:101AE00041F08051A0FB030391609B090193019B8E
:101AF0002BB1019B013B0193019B002BF9D1936812
:101B0000D90024D4636D012543F010036365A36DF0
:101B10002B43A365936813F0040F636D1DD1DB069F
:101B20001BD4636D23F4817343F0020363659368F0
:101B3000DE0728D4594B9A4217D003F580739A4296
:101B400013D0574B9B68D9071DD4564A15E09368AC
:101B5000002513F0040F636DE1D0636D012543F0A0
:101B600010032846636502B070BD4C4A4E4B926824
:101B70009B681343D80706D44C4A9368616823F4E2
:101B80007C130B439360FFF7E7F941F20303A1686D
:101B90009842237F52D894F815C01A04206B42EA69
:101BA0004C3202430A43012B03D1236A013B42EA30
:101BB0004342636A23B103F47873A16A0B431A4367
:101BC00023683B49D86801400A43DA609A6812F0FA
:101BD000040F9A681CD112071AD4D868354A217D9F
:101BE000024042EA8132E16A0A43DA6094F838201E
:101BF000012A3AD01A6922F001021A611A692046B4
:101C0000616B22F070420A431A61FFF78FFE23686E
:101C1000E268012A21D01A6B22F00F021A63636D69
:101C2000284623F0030343F00103636502B070BD4F
:101C300074F0D2FFA56584F850503FE71029AAD16F
:101C4000617D1A0442EA4132216B0A4342F01C02D0
:101C5000A9E70125284602B070BD196BA26921F0E1
:101C60000F01013A0A431A63D9E7D4E90F12666CEF
:101C700001391869324342EA0142A16C0A430E4914
:101C800001400A4342F001021A61B7E7C0FFFF5F5B
:101C90009C280020C0FFFF6F632D3E0500200240FE
:101CA00000600258006302580021024000230240F5
:101CB00003C0F0FFFCBFFFFF1EF800FCF0B50023DF
:101CC00083B0019390F85030012B40D0012304469B
:101CD0000E46154680F85030FFF722FDE8B9676DD3
:101CE00005F080421B4B06F480311B4D3B401B4FDF
:101CF00043F00203636523689E68354015430D4336
:101D000045F000459D609A68002A0FDB636D23F063
:101D1000030343F00103636503E0636D43F01003C5
:101D20006365002384F8503003B0F0BD019A01329E
:101D30000192019ABA42E6D3636D0022012023F09A
:101D4000120384F8502043F010036365ECE702208F
:101D500003B0F0BDFDEEFFFFC0FFFE3F00F8C3255E
:101D600006494FF6FF0C0002054BCA6800F4E0601C
:101D700002EA0C0210430343CB60704700ED00E021
:101D80000000FA051B4BDB68C3F3022300B5C3F167
:101D9000070E03F1040CBEF1040F28BF4FF0040E30
:101DA000BCF1060F1AD9033B4FF0FF3C0CFA03FCC1
:101DB00022EA0C024FF0FF3C00280CFA0EFC21EA4C
:101DC0000C0101FA03F141EA02010ADB09010A4BA5
:101DD000C9B2034483F800135DF804FB00221346E4
:101DE000E8E700F00F000901044BC9B2034419767B
:101DF0005DF804FB00ED00E000E100E0FCEC00E039
:101E0000002807DB00F01F0101234009024A8B4034
:101E100042F82030704700BF00E100E000280DDBF1
:101E20004309012200F01F000549203302FA00F0A7
:101E300041F82300BFF34F8FBFF36F8F704700BF90
:101E400000E100E0431EB3F1807F0CD24FF0E022AE
:101E5000002006494FF0F00C5361072381F823C09E
:101E60009061136170470120704700BF00ED00E0F2
:101E70004FF0E022042813690CBF43F0040323F061
:101E800004031361704700BF704700BF08B5FFF738
:101E9000FBFF08BD88B110B50379044603F0FF02CB
:101EA0003BB10023022101222171184623612271D6
:101EB00010BD427174F0FAFEF3E70120704700BFD5
:101EC0004279012A2ED003464FF0020C006801220D
:101ED00010B501F0100E83F804C0046802FA0EF287
:101EE00022430260026869B902F03E02624503D1F2
:101EF000426842F00102426000220121104619713D
:101F00005A7110BD0CFA0EFC02F478126245F3D13E
:101F10004268012142F0020242600022197110461B
:101F20005A7110BD0220704710B4006883B00024BD
:101F30000194019051B9019908310A440192019A22
:101F40000020136003B05DF8044B70470199143111
:101F50000A440192F3E700BF704700BF38B5056837
:101F600004462B689B0402D56B6B990418D42B682C
:101F70009A0002D56B6B9B0000D438BD04234FF050
:101F8000005220462371236943F0020323616A63F0
:101F90002B6823F080532B60BDE8384000F0BEB8BA
:101FA00004234FF400520371036943F001030361FA
:101FB0006A632B6823F480532B60FFF7CDFFD6E7CD
:101FC0002DE9F04143790D460968012B00F08D8021
:101FD000012304290446164643714FF0020303719E
:101FE00045D002F0100200682B69012B08D11F2692
:101FF000836B964023EA06066B6993403343836301
:10200000072606FA02F3C66B26EA0306D5E9027331
:10201000012B28D0022B28D0B7FA87F35B093B436A
:102020000B4369684FF4804593409140954033439A
:10203000C363036823EA050340F6FE750360954019
:10204000036823EA050301250B43C021036001FA5D
:1020500002F30268002122EA0302026008462571A9
:102060006171BDE8F0810023D9E70123D7E7FEF7CE
:102070005BFF0746C6B9DFF8888004E0FEF754FF2F
:10208000C31B012B34D823685B6B13EA080FF5D10F
:102090000120FEF74FFF2068AB6903640EE0FEF7F6
:1020A00043FFC31B012B23D823685B6B002BF6DB9C
:1020B0000120FEF73FFF2068AB69436406F0100281
:1020C00040F2FF31836C914023EA0103E9699140BA
:1020D0000B43FF2183649140C36C23EA0103296A07
:1020E00091400B432968C3647EE70220BDE8F0817C
:1020F0002369032243F00803104623612271B0E7ED
:1021000000800020944608290CBF42EA03224CEAD2
:102110000342036800202033CA507047704700BF55
:10212000704700BF704700BF70B5744D744C2B6989
:10213000DA0313D52378012BDEB200F08E802378EA
:10214000022BDDB200F0B680072D00F0B380032D26
:1021500000F09980043D022D00F29880674DD5F87B
:102160001031DB0310D52378042B57D0237803F0EC
:10217000FD02DBB2052A00F09280062B00F0B98048
:10218000013B022B00F28E805C4A136913F4DC03DE
:1021900010D0A1691943A16153612378012BDAB2F0
:1021A00033D0022A79D0072A77D000232069237000
:1021B000FFF7B8FF5149D1F8103113F4DC0313D005
:1021C000A2691A4342F00042A261C1F81431237897
:1021D000042BDAB238D002F0FD02052A51D10023D7
:1021E00002202370FFF79EFF237803F0FF015BB905
:1021F000424BDA6822F4DE02DA60D3F80C2122F4D2
:10220000DE02C3F80C21217570BD4FF0FF33E0688A
:10221000E36000232370FFF785FFCBE76368013B92
:1022200063606368002B58D0E068FFF779FF4FF4D4
:1022300080330221C5F81431E3680133E360E068BC
:10224000A26800F093F99FE74FF0FF33E068E36086
:1022500000232370FFF766FFC6E76368013B6360F6
:1022600063687BB3E068FFF75BFF4FF48033314670
:102270006B61E3680133E360E068A26800F076F91F
:102280006CE72069E4E72069FFF74AFF00211B4B58
:102290004FF4803221705A6160E70120B9E70220D3
:1022A000FFF73EFF0021154B4FF480322170C3F839
:1022B000142169E7043D0120FFF732FF022D7FF66C
:1022C0004DAFE3E74FF0FF32E2602370E068FFF7C5
:1022D00027FF4FF480336B6140E74FF0FF32E2603D
:1022E0002370E068FFF71CFF4FF48033C5F814310A
:1022F0004AE72069FFF714FFD4E700BF002000522F
:10230000A02A00200F4BDA68D20706D50E490F4AE3
:1023100059605A60DB68DB0711D40A4BD3F80C0113
:1023200010F001000AD00849084AC3F80411C3F8A4
:102330000421D3F80C0100F0010070477047012020
:10234000704700BF0020005223016745AB89EFCDE5
:102350002DE9F84388462E4C05462769FEF7E4FD33
:10236000B8F1020F814639D02A4B04241F40284E71
:1023700007E0D6F8103124EA03035B0706D4691C92
:1023800017D1042CF5D133695A07F8D437F000423D
:102390002CD1B8F1010F16D01D4BD3F8100110F459
:1023A000803004D04FF480311046C3F81411BDE8DA
:1023B000F883FEF7B9FDA0EB0900A84201D8002D73
:1023C000DFD10320F3E71249086910F48030EED022
:1023D0004FF4803310464B61BDE8F883D4F8107198
:1023E0000C4B0D4C1F4047F00047C0E70B49002F36
:1023F0004FF001008B6943EA07038B61044B03DA5A
:10240000C3F81421BDE8F8835F61BDE8F88300BF1D
:10241000002000520000EE1704000080A02A0020D7
:10242000F8B52F4E307D012850D001F178430127B7
:102430000D461446B3F5801F377536D3A1F10163FD
:10244000B3F5801F40D2002302214CF25030B3611B
:10245000FFF77EFF30BB234A0227D2F80C3143F04E
:102460000203C2F80C312246BFF36F8FBFF34F8FC8
:1024700004F120012B1B1068D05004328A42FAD19B
:10248000BFF36F8FBFF34F8F4CF250303946FFF7D9
:102490005FFF012F134A1BD0D2F80C3123F0020347
:1024A000C2F80C3100233375F8BD002339464CF2D5
:1024B0005030B361FFF74CFF0028F3D1094AD368CD
:1024C00043F00203D360CEE73846F8BD0220F8BDE2
:1024D000D36823F00203D36000233375E4E700BF21
:1024E000A02A00200020005201F00303032B22D079
:1024F000CA070BD51C4BDA6822F03002DA60DA68C2
:102500000243DA60DA6842F08802DA608B0711D59C
:10251000154BD3F80C2122F03002C3F80C21D3F86C
:102520000C211043C3F80C01D3F80C2142F08802AF
:10253000C3F80C2170470C4BDA6822F03002DA60E5
:10254000D3F80C2122F03002C3F80C21DA680243E0
:10255000DA60D3F80C211043C3F80C019A6942F0F9
:1025600010029A61704700BF0020005210B4CC07DF
:102570000BD5104CE36823F4E663E360E36843EAB9
:102580000023134343F08403E3608B070FD509490D
:10259000D1F80C3123F4E663C1F80C31D1F80C31D9
:1025A00043EA0020024342F08402C1F80C215DF8A6
:1025B000044B70470020005238B5364D2B7D012B5F
:1025C00051D00123002204462B754168AA61CA0735
:1025D00021D48B0736D502214CF25030FFF7B8FEDC
:1025E00010BB6168C8074DD401F0020252B32A4AF9
:1025F000D2F80C3143F4DE03C2F80C312368012B0E
:1026000023D102290CBF052307232B702069FFF774
:102610006BFF002038BD19464CF25030FFF798FE92
:1026200030B16368990727D4002301202B7538BD8A
:1026300061688B07CFD4CA0704D5174AD36843F41F
:10264000DE03D3602368012B11D001290DD00423B0
:102650002B70A068D4E903326B60E860AA60FFF7D2
:1026600085FF002038BD022038BD2970F1E701291F
:10267000C7D102232B70C9E702214CF25030FFF77B
:1026800067FED1E7044801F00202C36843F4DE03A9
:10269000C360ABE7A02A0020002000522DE9F04FD4
:1026A0000D6883B0002D00F0EB804FF0000CDFF8D8
:1026B0006882634625E003F007024FEAD30E4FF02D
:1026C0000F0A04F003044FEA820900EB8E0E04FAAD
:1026D0000CF40AFA09FADEF8202022EA0A0A0A694A
:1026E00002FA09F242EA0A02CEF8202002681640F5
:1026F0002643066001330CF1020C35FA03F200F0B8
:10270000BF8001229A4012EA050EF3D04C6824F0F3
:10271000100909F1FF36012E4FF0030606FA0CF6F8
:1027200000F2B180D0F808A0CF682AEA060AF64382
:1027300007FA0CFB4BEA0A0AC0F808A0C4F3001A17
:10274000D0F804B00AFA03FA2BEA02024AEA0202BB
:102750004260C268B9F1020F02EA060A8A6802FA08
:102760000CF242EA0A02C260A5D00268E70002EA5F
:10277000060204F0030606FA0CF646EA02060660B4
:10278000B8D55E4E03F003095D4FD6F8F4204FEA4A
:102790008909B84242F00202C6F8F420D6F8F420C3
:1027A00023F0030602F0020246440192019A4FF020
:1027B0000F02D6F808A002FA09F22AEA020226D08D
:1027C00007F58067B84267D04E4FB8426BD04E4F86
:1027D000B8425AD04D4FB84273D04D4FB84277D01F
:1027E0004C4FB84266D0DFF834A1504577D0DFF8BF
:1027F00030A150457AD0DFF82CA150450CBF4FF0E6
:10280000090A4FF00A0A0AFA09F942EA0902B26013
:102810004FF0B042E6036FEA0E09D2F880204FF085
:10282000B04603F101030CF1020C54BF09EA0202A5
:102830004EEA0202C6F88020A203D6F884604FF068
:10284000B04254BF09EA06064EEA0606E702C2F89D
:10285000846016684FF0B04254BF09EA06064EEA9B
:102860000606A4024FF0B0441660526854BF09EA4D
:1028700002024EEA0202626035FA03F27FF441AFCF
:1028800003B0BDE8F08FF64363E74FF0030A0AFA9E
:1028900009F942EA0902BAE74FF0010A0AFA09F90E
:1028A00042EA0902B3E74FF0020A0AFA09F942EADA
:1028B0000902ACE74FF0060A0AFA09F942EA0902EE
:1028C000A5E74FF0040A0AFA09F942EA09029EE76D
:1028D0004FF0050A0AFA09F942EA090297E74FF0B0
:1028E000070A0AFA09F942EA090290E74FF0080AD2
:1028F0000AFA09F942EA090289E700BF00440258CE
:102900000000025800080258000C0258001002583B
:10291000001402580018025800040058001C025805
:102920000020025800240258002900F0A88000234B
:102930002DE9F04FDFF8689183B0DFF86881DFF8A8
:1029400068A1DFF868B14FF0010E0EFA03F212EA47
:10295000010C6FD023F0030503F003040F2640455C
:102960004D444FEA8404AF6806FA04F607EA060706
:10297000019721D0504566D0584567D0434FB842A3
:102980006ED0434FB84270D0424FB84263D0424FEE
:10299000B84256D0414FB84272D0DFF814E17045CA
:1029A00068D0DFF810E1704514BF4FF00A0E4FF009
:1029B000090E0EFA04F400E00024019FA74219D189
:1029C0004FF0B044D4F8807027EA0C07C4F8807048
:1029D000D4F8847027EA0C07C4F88470276827EAC3
:1029E0000C072760676827EA0C076760AC6824EA71
:1029F0000606AE6003255C0003F007070F2605FA04
:102A000004F40568BF00254306FA07F70560DD08F2
:102A100000EB85052E6A26EA07062E62C56825EAC0
:102A20000405C560456825EA02024260826822EA20
:102A300004048460013331FA03F284D103B0BDE8A9
:102A4000F08F4FF0060E0EFA04F4B6E74FF0020EC8
:102A50000EFA04F4B1E74FF0050E0EFA04F4ACE7F9
:102A60004FF0030E0EFA04F4A7E74FF0040E0EFA2F
:102A700004F4A2E74FF0080E0EFA04F49DE7704745
:102A80004FF0070E0EFA04F497E700BF000C02584F
:102A9000001002580014025800180258001C025876
:102AA00000040058000002580004025800080258B0
:102AB00000200258002402580369194214BF012063
:102AC0000020704702B90904816170474FF0B0429D
:102AD000D2F88810014200D1704708B5C2F88800CA
:102AE00025F0EEF908BD00BF2DE9F04F90F8B8626F
:102AF00085B00446012E9DF838509DF83C70BDF815
:102B0000408026D001EB810C002602F07F0A4FF0B6
:102B1000010B00EBCC0CD00984F8B8B28CF838303B
:102B20008CF839108CF83AA08CF83B008CF83D609A
:102B30008CF83F708CF83C50ACF840800095CDE9A3
:102B40000178206806F090F884F8B86205B0BDE816
:102B5000F08F022005B0BDE8F08F00BF90F8B832CA
:102B6000012B0CD0012310B50446006884F8B8325C
:102B700006F0D4F90023184684F8B83210BD0220BC
:102B8000704700BF00284CD02DE9F04190F8B932D1
:102B90008AB00646056803F0FF02002B3CD00323F1
:102BA00034462846371D86F8B932EB6B6D4613F470
:102BB000807308BF336105F025FF54F810CB0FCCAC
:102BC0000FC50FCC0FC594E8030085E803006046ED
:102BD00097E80E0005F090FE0121306805F01AFF1D
:102BE000B446EE465CF8108BBCE80F00AEE80F0070
:102BF000BCE80F00AEE80F0094E8030085E803008E
:102C0000404697E80E0005F09FFF0123002086F85C
:102C1000B9320AB0BDE8F08180F8B82278F094F8B3
:102C2000BDE70120704700BFF0B501EB810E9DF8B4
:102C30001440069E4FEA810C00EBCE0EBDF81C50EE
:102C40009DF820708EF83B208EF83F3004BB0324A3
:102C5000022B8EF83D708EF8424022D0A34220D045
:102C6000012B2AD00CEB01032824002200EBC30324
:102C700083F8391004FB0101A3F85C205E6438314D
:102C8000C3E91252027C0068BDE8F04006F080B84B
:102C900002278EF84270032BE4D8DFE803F01E0E03
:102CA00002020CEB010300EBC30372B993F851402D
:102CB00044B1022283F84220D4E70CEB0103002246
:102CC00000EBC30383F84220CCE793F85020002A9E
:102CD000F8D0022283F84220C4E7012CC2D1002A96
:102CE000C0D10CEB010300EBC3031DB9012283F833
:102CF0005120B7E793F85120002AE3D0B2E700BF94
:102D00002DE9F04F056885B00446284605F0AEFE73
:102D1000012802D005B0BDE8F08F206805F0A2FEC2
:102D20000028F7D0206805F09DFE10F4001F2068F1
:102D300002D04FF40013436105F094FE10F4801F9D
:102D4000206802D04FF48013436105F08BFE10F031
:102D5000806F206802D04FF08063436105F082FEEF
:102D600010F0020F206801D00223436105F07AFEC3
:102D70008000266829D4304605F074FEC20126681A
:102D80003AD4304605F06EFE00072ED4206805F0D8
:102D900069FE81016AD42368184605F063FEC30604
:102DA000B8D52568AB6923F01003AB612E6AC6F372
:102DB0004341C6F30A17022902D1002F40F0E781F0
:102DC000AB6943F01003AB61A4E74FF000537361AC
:102DD000D5F84034D907CED4204678F001F83046F3
:102DE000012105F047FE2668C5E7204677F0F0FF91
:102DF000206808234361CAE7D6F8403406F588679F
:102E00000293D6F840340393039B23F02E030393DD
:102E1000029B9B0707D5029BD80700F1E881039B23
:102E200043F002030393029B190715D5039B43F05C
:102E300008030393029B5A0740F1DD81A16902292F
:102E400000F02282E368012B03D14EF66022C6F81F
:102E50000424204677F0CAFF029B9B0603D5039B00
:102E600043F020030393039B3B608AE7206806F04E
:102E700051F8D4F808E080462368BEF1000F00F056
:102E80009B8005F5A065002670464DE003F5A06A1D
:102E90004A010AEB4117B868400760D50420B860C2
:102EA000F86840F00200F860B868800500F188809A
:102EB000B868C00740F19180206960B101EB810CD6
:102EC000386904EBCC0CC0F3120EDCF84800A0EB20
:102ED0000E00CCF84C004FEA810B4FF0010C0020A3
:102EE0000BEB010904EBC909C9F8580089F85DC06A
:102EF000C7F808C099F83F0010F0FD0F00F03381CB
:102F0000032800F0E081012800F0218299F8507038
:102F100087F00107594404EBC10181F85070A068A3
:102F200001362035B04247D906F00F0228FA02F2E6
:102F3000D207F5D52A68F1B21704A7D403F5A06E1D
:102F40004FEA41190EEB4117BA6812F0040211D092
:102F50000422BA60FA6842F00202FA60E0E7B86858
:102F6000C00500F1E780B868800640F1A38020200A
:102F7000B86099E7D7F808C01CF0200C61D001EBCD
:102F8000810C4FF0200E04EBCC0CC7F808E09CF845
:102F90003DE0BEF1010FC3D18CF83D204FF002029D
:102FA00018468CF85C20FB6843F00203FB6005F0D8
:102FB000B5FF2368A068B3E74FF000725A61EBE6F3
:102FC0001846FB6843F00203FB6005F0A7FF4FF4CF
:102FD0000073BB602368A068A2E7B868800740F16F
:102FE0008A80F8684FEA810B20F00200F86001EB5C
:102FF000810004EBC00090F85DE0BEF1010F00F02D
:10300000C380BEF1050F00F0BF80BEF1060F00F0D7
:103010008381BEF1080F00F07F81BEF1030F00F045
:10302000F481BEF1070F00F0118290F85CE000938C
:10303000022320467246BB6077F0D6FEA068009B54
:103040006EE7BA68520600F1DA80BA6812F40072CC
:10305000B6D1D7F808C01CF0010F40F04981BA681A
:1030600012F0080240F0B581D7F808C01CF0100F2C
:1030700000F07A8101EB810004EBC000826503223D
:1030800080F85D2090F83D2042B9282202FB0142E1
:1030900092F83C0010B9012082F83D001846FB6808
:1030A00043F00203FB6005F039FF1023BB60236887
:1030B000A06835E7B868000700F1F280B8684005FD
:1030C0007FF5F2AE1846FB68019243F002030091CF
:1030D000FB6005F023FF00991020019A01EB8103AA
:1030E000B860082004EBC30383F85D004FF48063ED
:1030F000BB602368D8E6BA6812F0800240F0AE8068
:10310000B868C00640F1A88001EB810C04EBCC0C40
:103110009CF83F00032800F08A8110F0FD0005D1E3
:103120002269CCF85800002A00F09B811022A06888
:10313000BA60F5E64FF4807C184601EB81030192FA
:10314000C7F808C04FF0070C04EBC30383F85DC059
:10315000FB6843F00203FB60009105F0DFFE23688B
:10316000DDE90012A0E61846FB68009143F0020377
:10317000FB6005F0D3FE10230099BB6099F85070F6
:10318000236887F00107C5E680F85CE04FE706F0AA
:103190000F0606EB860804EBC808D8F8441000298F
:1031A0003FF40EAE284605F5A0653A4605F04AFC08
:1031B000D8F8443005EB46123B441169D8F84C204E
:1031C000C8F8443073013A44C8F84C20C04A0A4059
:1031D0005AB1EA5822F0804242F00042EA5098F890
:1031E000503083F0010388F850302568E8E5204628
:1031F00077F0F2FD13E6204677F0FCFD2CE618464A
:1032000001EB8103042204EBC30383F85D20012258
:10321000C3F858C083F83D20FB6843F00203FB600D
:1032200005F07CFE4023BB602368A06878E6184662
:10323000FB68009143F00203FB6005F06FFE28235A
:10324000009903FB01411023BB604FF48063BB6016
:10325000082381F85D302368A06861E6184601EB19
:103260008102FB6804EBC20243F00203FB60936D32
:1032700001339365062382F85D3005F04FFE80230D
:10328000BB602368A0684BE6029B304603F4C02372
:10329000B3F5802F18BF012105F0ECFB2668D8E5B7
:1032A0001846FB684FF0050C019243F00203FB60E7
:1032B00001EB810304EBC30383F85DC01023BB6003
:1032C0000823BB6048E752F80A00019340F0005021
:1032D000009142F80A006246204689F85CC077F007
:1032E00083FD99F85070DDE9001387F0010711E6BE
:1032F000184601EB8109FB6804EBC90943F002039E
:10330000C9F85820FB6005F009FE0123BB6089F86D
:103310005D302368A06803E60BEB010C04EBCC0CDA
:10332000DCF8580001300328CCF8580066D94FF07B
:10333000040E00208CF85CE0CCF8580052F80A002B
:1033400020F0804040F0004042F80A006FE602465C
:1033500089F85C0020460193009199F8507077F04D
:1033600043FDDDE90013D5E5BA68120600F1888057
:10337000BA6852053FF55BAFBA6892077FF5D0ADEA
:10338000FA6822F00202FA60282202FB014090F85B
:103390005D20012A00F08D80032A00F08580042A38
:1033A00000F08280052A00F0AB80062A00F09280AF
:1033B000082A00F08F80009302232046BB60282358
:1033C00003FB014292F85C2077F00EFDA068009BA1
:1033D000A6E5184608230091BB60FB6843F0020392
:1033E000FB6005F09BFD0099052201EB810104EBD8
:1033F000C10383F85D202368A06891E54FF00200C7
:103400004FF0020E8CF85C0098E728204FF0020C79
:103410004FF0020E00FB014080F85CC052F80A0039
:1034200020F0804040F0004042F80A00FFE51846D6
:103430004FF0280CFB680CFB014C43F00203CCF866
:103440005820FB6005F06AFD23686FE628224FF0E4
:10345000040E02FB0142906D82F85CE00130906541
:10346000E5E518462823032203FB014383F85D208A
:10347000FB6843F00203FB6005F050FD236855E64E
:103480001846FB68009143F00203FB6005F046FD1F
:103490002823009903FB0141062381F85D30802336
:1034A000BB602368A0683BE54FF0020280F85C2017
:1034B00081E780F85C2090F83F20023A012A3FF62D
:1034C0007AAF90F8512082F0010280F8512072E723
:1034D0000000F81F282202FB0140826D0132032AFE
:1034E000826510D900228265042280F85C205EF893
:1034F000092022F0804242F000424EF809205AE7AB
:1035000080F85C2057E74FF0020280F85C20EEE77D
:1035100038B590F8B832012B0FD004460125006869
:1035200084F8B85205F066FA2946206805F0E4FAF6
:103530000023184684F8B83238BD022038BD00BFD9
:1035400090F8B832012B0CD0012310B50446006866
:1035500084F8B83205F03CFD0023184684F8B832F0
:1035600010BD0220704700BF006805F0A5BA00BF7B
:1035700001EB810100EBC10191F85C00704700BFD5
:1035800001EB810100EBC101C86C7047006805F0D8
:1035900067BB00BF006805F057BB00BFF8B5064623
:1035A0000D461746346801E0681C20D1A3699906CE
:1035B000FAD510222023E261E361A3699A0701D5BD
:1035C0000023A362A369DB0724D5636800221448A3
:1035D000202103406360736C86F8402043F00403AD
:1035E000736486F8411086F842200120F8BDFDF78B
:1035F0009BFCC01B854201D3002DD3D1736C2021CD
:1036000000220B4386F84020736486F8411086F848
:103610004220EAE7A36943F00103A361D5E700BFB5
:1036200000E800FEF8B505460C46164609E02B6892
:103630009A69910622D4FDF777FC801BA04210D82E
:103640007CB12B683246214628469F697F0713D4F8
:103650009F69FF06ECD5FFF7A1FF0028E7D0012006
:10366000F8BD6B6C202200210120134385F8401027
:103670006B6485F84120F8BD0020F8BD9A695207B7
:1036800002D52A8D002AF7D1202407480022DC61C8
:1036900059680140012059606A6485F8402085F826
:1036A000414085F84220F8BD00E800FEF8B5054627
:1036B0000C46164605E0FDF737FC801BA04210D8EB
:1036C0007CB12B683246214628469F69BF0615D437
:1036D0009B69DB06EFD5FFF761FF0028EBD00120E7
:1036E000F8BD6B6C2021002201200B4385F840209F
:1036F0006B6485F8411085F84220F8BD0020F8BDC4
:10370000F8B504460D46174601E06B1C11D123683D
:103710003A46294620469E69B60708D49B69DE06CC
:10372000F3D5FFF73BFF0028EFD00120F8BD0020C4
:10373000F8BDFDF7F9FBC01BA84201D8002DE6D16A
:10374000636C2021002201200B4384F84020636435
:1037500084F8411084F84220F8BD00BF00284ED004
:1037600010B590F84130044603F0FF02002B41D021
:1037700023682421626884F84110196822F070627D
:10378000E06821F00101012819601A619A6822F4A9
:1037900000429A60A26829D042F4044202289A604A
:1037A00002D14FF400625A6058684FF0200C15495E
:1037B000226901435960D96821F40041D960D4E9F4
:1037C0000501024342EA0122D4E90710DA6000222F
:1037D000014310461960196841F0010119606264E3
:1037E00084F841C0226384F8422010BD42F40042B4
:1037F0009A60D9E780F8402073F07EFAB8E701209C
:10380000704700BF00800002B0B10268242310B5E9
:1038100080F841300446136823F00103136073F00D
:10382000B9FA00236364184684F8413084F84030C4
:10383000236384F8423010BD012070472DE9F8431E
:10384000984690F84130089D202B72D190F8403076
:103850000446012B6DD001230F46914680F840307D
:10386000FDF762FB064604E0FDF75EFB801B1928AE
:1038700062D82368986910F40040F5D12122C4F879
:103880002490606384F84120102284F84220606410
:10389000A4F82A80628D92B2FF2A6ED8628D4A48BF
:1038A00092B2D1B222855A680240C7F3090002439E
:1038B000074642EA0142454911435960DFF8188141
:1038C000BFB2DFF81891638D3246294620469BB27D
:1038D000EBB1FFF715FF002873D1606A216810F87B
:1038E000012B238D8A62628D013B6062013A9BB29B
:1038F00092B223856285628D92B2002BE3D15ABBCE
:10390000638D3246294620469BB2002BE1D1FFF75A
:10391000CDFE002855D1236820212D4DD9615A684C
:103920002A405A6084F8411084F8400084F842002C
:1039300000E00220BDE8F883636C20210022012012
:103940000B4384F84020636484F8411084F84220DB
:10395000BDE8F8836A1C1DD18B691B06FAD5638DFF
:103960009BB2FF2B1FD94B68FF2203EA0803228575
:103970003B4343EA09034B60A5E75A6812490A40F2
:10398000C7F309010A430F4612491143FF2222855A
:10399000596093E7FDF7C8FA801B8542CCD3002D10
:1039A000CAD02168D8E7638D9BB2DAB223854B6811
:1039B00003EA08033B4343EA024343F000734B60CE
:1039C00081E70120BDE8F883009800FC0020008218
:1039D00000E800FE0020FF81009C00FC0000FF01C9
:1039E0002DE9F843984690F84130089D202B40F08F
:1039F0008C8090F840300446012B00F08680012333
:103A00000F46914680F84030FDF78EFA064605E0F5
:103A1000FDF78AFA801B192800F2818023689869D3
:103A200010F40040F4D12222C4F82490606384F89A
:103A30004120102284F842206064A4F82A80628D1C
:103A400092B2FF2A79D8628D4B4892B2D1B22285C8
:103A50005A680240C7F309000243074642EA01429E
:103A6000464911435960DFF82081BFB2DFF81C914D
:103A7000638D3246294620469BB2002B33D0FFF798
:103A8000D1FD002874D12268636A526A1A70628D6F
:103A9000238D013A616A013B92B201319BB262858A
:103AA000628D616292B22385002BE1D1002ADFD0C2
:103AB000226801E0691C2BD193691B06FAD5638D3E
:103AC0009BB2FF2B46D95368FF21204603EA080327
:103AD000218529463B4343EA090353603246638DFF
:103AE0009BB2002BCBD1FFF7E1FD002840D123682A
:103AF0002021234DD9615A682A405A6084F8411028
:103B000084F8400084F8420000E00220BDE8F88319
:103B1000FDF70AFA801B854201D3002DC8D1636CE2
:103B20002021002201200B4384F84020636484F8A4
:103B3000411084F84220BDE8F8835A680E490A40D3
:103B4000C7F309010A430F460E491143FF2222859C
:103B5000596088E7638D9BB2D9B22385536803EA25
:103B600008033B4343EA014343F0007353607FE79C
:103B70000120BDE8F88300BF009800FC002400820B
:103B800000E800FE0024FF81009C00FC0000FF0113
:103B90002DE9F047002482B08146019490F841005D
:103BA00020285CD11746D9F800201E46936913F4EB
:103BB000004354D199F84000012850D0C1F30900C6
:103BC000DFF850810121824640EA080889F8401058
:103BD000242189F84110C9F84430D9F80C30012B60
:103BE0000CBF43464AF420535360FDF79DF9D9F8C2
:103BF0000010054688690B468A6900F0200002F033
:103C00001002024313D1741C07D0FDF78DF9401B3D
:103C1000B04228D83EB3D9F800108A690B468C69A7
:103C200002F0200E04F0100C5EEA0C02EBD08A6960
:103C3000D00602D432E0741C25D18B699806FAD5DF
:103C40001023CB612023CB61019BBB4232D0019B6F
:103C500001330193019BBB4205D20A46BDE7022016
:103C600002B0BDE8F08720230022012089F841300E
:103C7000D9F8443089F8402043F02003C9F8443093
:103C800002B0BDE8F087FDF74FF9401B864227D30D
:103C900036B3D9F80010D0E7721C30D19A69970674
:103CA000FAD520210022D961104689F8411089F8FF
:103CB0004020D5E74B6843F480434B6001E0721C21
:103CC00005D18B699B06FAD52023CB61BFE7FDF7B1
:103CD0002BF9401B864203D316B1D9F80010F0E748
:103CE000D9F844302021002201200B4389F84020DC
:103CF000C9F8443089F8411089F84220B0E7FDF74F
:103D000013F9401B8642EBD3002EE9D0D9F80030DE
:103D1000C4E700BF0020000290F84120202A23D1F0
:103D20005FFA82FC90F840200346012A1CD002680A
:103D3000242000B583F841004FF0000E106820F0F9
:103D400001001060106820F480501060106801437A
:103D500070461160116841F00101116083F841C0A3
:103D600083F840E05DF804FB0220704790F84120A2
:103D7000202A22D1034600B55FFA82FE90F8402047
:103D8000012A1CD0026824204FF0000C83F8410067
:103D9000106820F001001060106820F4706040EAA4
:103DA000012160461160116841F00101116083F842
:103DB00041E083F840C05DF804FB02207047022018
:103DC0005DF804FB0B4AD2F8F41041F0020110B484
:103DD000C2F8F41083B0D2F8F420074C02F00202CB
:103DE0000192019B63681843606003B05DF8044B67
:103DF000704700BF0044025800040058024A13688C
:103E000043F48073136070470048025838B5104C73
:103E1000E36813F0040FE36805D103F00703181AF1
:103E200018BF012038BD23F007031843E060FDF7F9
:103E30007BF8054605E0FDF777F8401BB0F57A7F83
:103E400004D863689B04F6D5002038BD012038BD36
:103E50000048025838B50B4CA36843F00103A36037
:103E6000FDF762F8054605E0FDF75EF8401BB0F58A
:103E70007A7F04D8A368DB03F6D5002038BD012083
:103E800038BD00BF00480258024AD36843F080732F
:103E9000D360704700480258464B30B49A6A9C6A17
:103EA000DD6A14F47C7F596BC4F3051038D0C1F37C
:103EB000CC0105F0010502F0030205FB01F1012A26
:103EC00007EE901AB8EEE77A02D0022A4ED04AB333
:103ED00007EE900ADFED386AF8EEE77A1B6B86EEA4
:103EE000A76ADFED365AC3F3080306EE903AB7EE41
:103EF000005AF8EEE66A76EE856AE7EE256A66EE27
:103F0000266A2C4B1B6BC3F34623013307EE903A12
:103F1000B8EEE77AC6EE877AFCEEE77A17EE900AFB
:103F200030BC70471A6892063DD5196807EE900AB2
:103F3000234AB7EE006A1B6BC1F3C101F8EEE77AC2
:103F40009FED1E5AC3F30803CA4006EE903A05EEF1
:103F5000902AF8EEE66AF8EEE55A76EE866A85EE85
:103F6000A76AE7EE056A66EE266ACAE7154A07EE13
:103F7000900A1B6BF7EE004AD2ED005AF8EEE77A92
:103F8000C3F308039FED0D5AF8EE655A06EE903A1A
:103F900085EEA76AF8EEE66A76EEA46AE7EE056AB1
:103FA00066EE266AADE707EE900ADFED076AF8EEE7
:103FB000E77A93E7004402580024744A000000396D
:103FC0000090D0033C1701200024744C002800F01E
:103FD000E781F8B503680446D9072ED59F490A69D9
:103FE000896A02F03802102A00F02581182A00F0B0
:103FF0001D816368B3F5803F00F05F81002B00F006
:104000007781B3F5A02F954B1A6800F0688222F4EF
:1040100080321A601A6822F480221A60FCF784FF4A
:104020008E4E054605E0FCF77FFF401B642800F23A
:104030005D8133689F03F6D52368990721D5874AA8
:104040001369926A13F0380340F0A480834B1B6815
:104050005B0703D5E368002B00F0E680FCF77CFFEC
:1040600041F20303984200F27C812269402A00F069
:104070003E827A494B6823F47C3343EA02334B6037
:104080002368D90653D41D0716D56369734D002BD9
:1040900000F0AE806B6F43F001036B67FCF744FFE9
:1040A000064605E0FCF740FF801B022800F21E8157
:1040B0006B6F9807F6D523689A0616D5A369674DE6
:1040C000002B00F02B812B6843F480532B60FCF70E
:1040D0002BFF064605E0FCF727FF801B022800F2B5
:1040E00005812B689F04F6D52368590700F1AD8040
:1040F000606AD0B1594D2B6903F03803182B00F0DA
:10410000C0812B68022823F080732B6000F054815B
:10411000FCF70AFF044605E0FCF706FF001B022837
:1041200000F2E4802B689B01F6D40020F8BD4B4AD6
:104130001369926A03F03803082B6ED0182B68D0ED
:10414000E369464D002B00F0FA802B6843F08003B2
:104150002B60FCF7E9FE064605E0FCF7E5FE801B58
:10416000022800F2C3802B68DB05F6D5FCF7F4FECD
:1041700041F20303984200F2E381226A6B68202A2D
:1041800023F0F8430CBF43F0804343EA82636B6043
:10419000236878E7182B00F0FF80304DE2682B6829
:1041A000002A00F0E88023F0190313432B60FCF78A
:1041B000BBFE064605E0FCF7B7FE801B022800F2B6
:1041C00095802B685F07F6D5FCF7C6FE41F2030326
:1041D000984200F2BE8122696B68402A23F47C3346
:1041E0000CBF43F4003343EA02336B60236848E7B3
:1041F0006B6F23F001036B67FCF796FE064604E045
:10420000FCF792FE801B022870D86B6F9907F7D4D9
:1042100051E702F00302012A92D1104B1B68DA0524
:1042200051D5E369802B4ED00120F8BD01F0030188
:1042300002297FF4DEAE094A126892037FF5FDAED3
:104240006268002A7FF4F9AEEEE7054D2B6843F46F
:1042500080732B60FCF768FE064608E000440258B5
:1042600000480258FCF760FE801B64283ED82B688B
:10427000DA05F7D5A368012B00F07481002B00F05C
:104280003F81052BA64B1A6F00F07B8122F00102C3
:104290001A671A6F22F004021A67FCF745FEA04E57
:1042A00041F28837054604E0FCF73EFE401BB84269
:1042B0001CD8336F9B07F7D51AE7994A136843F464
:1042C00080331360AAE6FCF747FE41F203039842ED
:1042D00068D8226A202A00F04B8191494B6823F06C
:1042E000F84343EA82634B602368CCE60320F8BDC1
:1042F0008B4D2B6823F480332B602B6823F48023B1
:104300002B60FCF711FE064604E0FCF70DFE801B57
:104310006428EBD82B689803F7D48DE62B6823F438
:1043200080532B60FCF700FE064604E0FCF7FCFD22
:10433000801B0228DAD82B689804F7D4D4E62B68BF
:1043400023F080032B60FCF7EFFD064604E0FCF74A
:10435000EBFD801B0228C9D82B68DF05F7D4236842
:1043600091E66F4A2169536823F0FE4343EA0163F3
:104370005360236885E623F001032B60FCF7D4FD2E
:10438000064604E0FCF7D0FD801B0228AED82B685F
:104390005807F7D4236874E692077FF4FEAE55E61B
:1043A000012070475E4A216AD36823F07C5343EAB8
:1043B0000163D360236866E6FCF7B6FD064604E0B9
:1043C000FCF7B2FD801B022890D82B689901F7D426
:1043D000A96A544BA26A0B405349514E1343E26AF7
:1043E00043EA0213AB62D4E90D32013B013A5B02AE
:1043F00012049BB202F4FE021343226B013AC2F391
:1044000008021343E26B013A120602F0FE42134324
:104410002B63EB6A23F00103EB626A6BA36C114020
:1044200041EAC3016963EB6A226C23F00C03134376
:10443000EB62EB6A626C23F002031343EB62EB6AFC
:1044400043F48033EB62EB6A43F40033EB62EB6AD4
:1044500043F48023EB62EB6A43F00103EB622B68C9
:1044600043F080732B60FCF75FFD044605E0FCF72A
:104470005BFD001B02283FF639AF33689A01F6D581
:1044800053E60128AA6A2D6B3FF450AE02F00303F5
:10449000A16A8B427FF4C8AEC2F30512E36A9A4266
:1044A0007FF4C2AE236BC5F30802013B9A427FF44E
:1044B000BBAE636BC5F34622013B9A427FF4B4AEB8
:1044C000A36BC5F30642013B9A427FF4ADAEE06BAD
:1044D000C5F306650138281A18BF0120F8BD42F45B
:1044E00080221A601A6842F480321A6096E50C4AFB
:1044F000536823F47C3343F4003353602368C0E5EE
:10450000074D41F288372B6F23F001032B672B6F88
:1045100023F004032B67FCF707FD06460CE000BF01
:10452000004402580CFCFFFF0700FFFFFCF7FCFCF7
:10453000801BB8423FF6DAAE2B6F9807F6D4D7E56A
:10454000EB68226A23F07C5343EA0263EB60236842
:1045500099E56B68226923F0FE4343EA02636B60CE
:1045600023688EE50B4A136F43F00103136794E64B
:10457000084A536823F0F84343F0804353602368AC
:1045800081E542F004021A671A6F42F001021A67CD
:1045900083E600BF0044025870B50D4688B014464B
:1045A000234E00BBD6F8E03003A943F00103C6F860
:1045B000E030D6F8E030059003F0010307901D4885
:1045C00001934FF48073019A03930223049303230E
:1045D0000693FEF763F8326922F0FE722A43224303
:1045E000326108B070BDD6F8E03000224FF400719F
:1045F000114843F00403C6F8E030D6F8E0300592E5
:1046000003F0040307920222039102930323029909
:1046100003A906930492FEF741F8336923F07E4321
:1046200043EA050141EAC411316108B070BD00BF21
:104630000044025800000258000802580D4A13694D
:1046400003F03803102B04D0182B0ED023B10A48E6
:1046500070470A4B1868704713689B0607D51368A4
:104660000748C3F3C103D8407047FFF715BC04489F
:10467000704700BF0044025800093D003C1701206C
:104680000090D003002800F00C818C4A136803F0DE
:104690000F038B422DE9F04104460D460CD21368FE
:1046A00023F00F030B431360136803F00F038B42D7
:1046B00002D00120BDE8F08123685F070BD5804957
:1046C00020698A6902F07002904204D98A6922F056
:1046D000700202438A611E070BD579496069CA6975
:1046E00002F07002904204D9CA6922F070020243BB
:1046F000CA61D8060BD57249A069CA6902F4E062A2
:10470000904204D9CA6922F4E0620243CA61990660
:104710000BD56B49E0690A6A02F07002904204D935
:104720000A6A22F0700202430A629A0740F1AB80E3
:104730006348E168826902F00F02914204D98269FC
:1047400022F00F020A438261D80730D55C4AA16883
:10475000936923F470630B439361616813680229C2
:1047600000F0A180032900F09880012900F0A180C9
:1047700058079ED5524E41F28838336923F007031B
:104780000B433361FCF7D0FB074605E0FCF7CCFB9D
:10479000C01B404500F28B803369626803F0380328
:1047A000B3EBC20FF2D12368990706D5E1684448FC
:1047B000826902F00F028A4269D840490A6802F011
:1047C0000F02AA420AD90A6822F00F022A430A609D
:1047D0000A6802F00F02AA427FF46BAF5A070BD5AA
:1047E000374920698A6902F07002904204D28A69CE
:1047F00022F0700202438A611F070BD530496069BD
:10480000CA6902F07002904204D2CA6922F07002B2
:104810000243CA61DE060BD52949A069CA6902F4C0
:10482000E062904204D2CA6922F4E0620243CA61A3
:104830009D060BD5224AE169136A03F07003994281
:1048400004D2136A23F070030B431362FFF7F6FEE2
:104850001B4A03461B4891699269C1F303211A4D13
:1048600002F00F02194C415C825C01F01F011848F4
:1048700002F01F02CB4000682B60D3402360BDE8EC
:10488000F041FCF7F3BADA073FF560AF95E78269CC
:1048900022F00F02114381618FE79F013FF56AAF5C
:1048A00007E7012070479B033FF564AF01E7032052
:1048B00000E7DE053FF55EAFFBE600BF00200052DB
:1048C00000440258B02D0E089C280020A02800208B
:1048D00004000020194A38B5136903F03803102B7F
:1048E0001AD0182B24D0D3B11548144B15499A6906
:1048F0009B69C2F30322144C03F00F03134D8A5C2F
:10490000CB5C02F01F0220FA02F203F01F0022FA31
:1049100000F02A60206038BD0D4B1868E5E7136889
:104920009B0608D512680B48C2F3C102D040DCE7F1
:10493000FFF7B2FAD9E70748D7E700BF00440258AB
:1049400000093D00B02D0E08A02800209C28002062
:104950003C1701200090D00308B5FFF7BBFF054BC3
:10496000054ADB69C3F30213D35C03F01F03D8408D
:1049700008BD00BF00440258B02D0E0808B5FFF76F
:10498000A9FF054B054ADB69C3F30223D35C03F09F
:104990001F03D84008BD00BF00440258B02D0E08C8
:1049A000F8B53A4CA36A03F00303032B67D02368DE
:1049B00006460F4623F080532360FCF7B5FA054600
:1049C00004E0FCF7B1FA431B022B56D823689A0087
:1049D000F7D4A36A326823F07C7343EA0253A362DC
:1049E000D6E90232013B013A5B0212049BB202F4A7
:1049F000FE0213437268013AC2F30802134332699C
:104A0000013A120602F0FE4213432364E36A72691C
:104A100023F440631343E362E26AB36922F4007251
:104A20001A431B4BE262E26A22F48072E262616C1A
:104A3000F2690B4043EAC2036364E36A43F48073A0
:104A4000E362E36AEFB1012F0CBF43F4000343F0CC
:104A50008073E3620D4C236843F080532360FCF7BE
:104A600063FA054604E0FCF75FFA401B022804D80D
:104A700023689B00F7D50020F8BD0320F8BD012076
:104A8000F8BD43F48003E362E4E700BF004402584A
:104A90000700FFFFF8B53A4CA36A03F00303032BAA
:104AA00067D0236806460F4623F080632360FCF737
:104AB0003BFA054604E0FCF737FA431B022B56D8B5
:104AC00023681A01F7D4A36A326823F47C3343EADB
:104AD0000233A362D6E90232013B013A5B021204BF
:104AE0009BB202F4FE0213437268013AC2F3080259
:104AF00013433269013A120602F0FE421343A363E4
:104B0000E36A726923F0C0031343E362E26AB369A4
:104B100022F020021A431B4BE262E26A22F01002EA
:104B2000E262E16BF2690B4043EAC203E363E36ACA
:104B300043F01003E362E36AEFB1012F0CBF43F4CB
:104B4000801343F40013E3620D4C236843F0806349
:104B50002360FCF7E9F9054604E0FCF7E5F9401BA2
:104B6000022804D823681B01F7D50020F8BD0320D4
:104B7000F8BD0120F8BD43F40023E362E4E700BF81
:104B8000004402580700FFFF2DE9F843036804467C
:104B900013F0006622D0426EB2F5001F00F0908440
:104BA00011D8002A00F0FB84B2F5801F40F0F48495
:104BB00002210430FFF76EFF0646002E40F0888485
:104BC000626E236803E0B2F5401F40F0E584A84818
:104BD0000026016D21F440110A430265DD050AD566
:104BE000626D042A06D8DFE812F0A5047F048B0466
:104BF000DF02DF020126354698051BD5A26D802A0B
:104C000000F08F8400F2EC80002A00F08B83402AB1
:104C100040F0ED800021201DFFF73CFF2368054692
:104C2000002D40F065839249A06D0A6D22F4E07278
:104C300002430A6559051FD5D4F8A420B2F5800FA8
:104C400000F0498400F2D680002A00F07183B2F5AA
:104C5000001F40F0D7800021201DFFF71BFF2368B5
:104C60000546002D40F048838149D4F8A4008A6DA0
:104C700022F4600202438A651A051FD5D4F8A820E1
:104C8000B2F1007F00F05D8400F2BF80002A00F0E6
:104C90005583B2F1807F40F0C0800021201DFFF7D6
:104CA000F9FE23680546002D40F02A837049D4F8A8
:104CB000A8008A6D22F0E06202438A659F0118D540
:104CC000A26C202A00F0C58300F2AA803AB1102A13
:104CD00040F0A9806649CA6A42F40032CA62002DD7
:104CE00040F057836249A06CCA6C22F03002024344
:104CF000CA64D8041DD5E26DB2F5005F00F00884E7
:104D000000F29480002A00F01F83B2F5805F40F02B
:104D100095800021201DFFF7BDFE23680546002D6C
:104D200040F0E8825249E06D0A6D22F4E04202430D
:104D30000A6599041AD5226EB2F5003F00F06D8322
:104D40007FD84AB1B2F5803F40F083800121201D19
:104D5000FFF7A0FE23680546002D40F01C83444960
:104D6000206E0A6D22F4E02202430A655A041BD524
:104D7000D4F8AC20B2F1005F00F059836CD842B196
:104D8000B2F1805F70D10121201DFFF783FE2368FF
:104D90000546002D40F001833549D4F8AC008A6DFA
:104DA00022F0E04202438A651F040DD5E26EB2F1A3
:104DB000805F00F04683B2F1005F00F00182002ABC
:104DC00000F0048201263546D8015DD5626C032AC5
:104DD00000F21084DFE812F0540051034E0054003A
:104DE000C02A3FF41DAFB2F5807F3FF419AF012612
:104DF00035461FE7B2F5C00F3FF433AFB2F5000FF1
:104E00003FF42FAF0126354636E7B2F1407F3FF43D
:104E10004AAFB2F1806F3FF446AF012635464DE709
:104E2000302A3FF45CAF0126354662E7B2F5405FB9
:104E30003FF475AFB2F5804F3FF471AF01263546B0
:104E400077E722F48031B1F5802F85D0B2F5403F6D
:104E500082D00126354689E722F08051B1F1804F9A
:104E600097D0B2F1405F94D0012635469CE700BF51
:104E7000004402580221201DFFF70CFE236805465E
:104E8000002D00F069822E46590200F1E581DF070E
:104E90002FD5A26F282A2AD8DFE812F0D3012900E3
:104EA0002900290029002900290029007003290070
:104EB000290029002900290029002900CC01290006
:104EC000290029002900290029002900D3012900EF
:104ED000290029002900290029002900D3012900DF
:104EE000290029002900290029002900D3010126D1
:104EF0003546980716D5626F052A00F27883DFE8F9
:104F000012F00D00290306000D000D000D00012117
:104F100004F12400FFF744FD23680546002D00F04E
:104F200025822E46590717D5D4F89020052A00F27D
:104F30006483DFE812F00D00190306000D000D0078
:104F40000D00012104F12400FFF72AFD2368054626
:104F5000002D00F013822E469A061DD5D4F88C2021
:104F6000B2F1005F00F07E8200F2DC804AB1B2F163
:104F7000805F40F0E1800021201DFFF78BFD23685A
:104F80000546002D40F0E681A949D4F88C004A6D11
:104F900022F0E04202434A655F061DD5D4F898200E
:104FA000B2F5006F00F0258200F2C9804AB1B2F577
:104FB000806F40F0CE800021201DFFF76BFD23683D
:104FC0000546002D40F0EB819949D4F898008A6D90
:104FD00022F4E05202438A6518061DD5D4F89C20BD
:104FE000B2F5804F00F00F8200F2B6804AB1B2F500
:104FF000005F40F0BB800021201DFFF74BFD2368C0
:105000000546002D40F0B0818949D4F89C008A6D96
:1050100022F4604202438A6519070BD5D4F8801048
:10502000B1F5805F00F032828148426D22F4405237
:105030000A434265DA060BD5D4F89410B1F5807FA7
:1050400000F031827A48826D22F440720A43826510
:105050001F030ED5D4F8A010B1F5803F00F0D48026
:10506000B1F5003F00F0D780002900F0BA81012699
:10507000354658030FD5D4F88420B2F5001F00F050
:10508000B080B2F5401F00F0B380B2F5801F00F091
:10509000A08101263546D90309D5E26C002A00F02B
:1050A0008681B2F5803F00F02D81012635469A00B9
:1050B00000F113819F035CD4301E18BF0120DE0273
:1050C00006D55B49256F0A6D22F000422A430A6526
:1050D000DD0007D55649D4F8B4500A6922F480425D
:1050E0002A430A61990206D55149A56E0A6D22F03C
:1050F00080722A430A655A0009D54D4A116921F484
:10510000004111611169D4F8B85029431161002B95
:1051100006DA474A216DD36C23F040530B43D36426
:10512000BDE8F88322F08051B1F1804F3FF429AF00
:10513000B2F1405F3FF425AF012635462CE722F45B
:105140008061B1F5805F3FF43CAFB2F5406F3FF452
:1051500038AF012635463FE722F40051B1F5004F44
:105160003FF44FAFB2F5C04F3FF44BAF0126354689
:1051700052E7E26FB2F5807F00F0228106D922F477
:105180008071B1F5007F03D0012098E7002AFBD1A0
:10519000002DF9D1264D301E696D18BF012021F474
:1051A00040710A436A658AE73546002D40F0A680C3
:1051B0001F49606D0A6D22F0070202430A651BE574
:1051C0000121201DFFF766FC23680546002D40F0F5
:1051D000DE801749E06E0A6D22F0405202430A65F4
:1051E000F2E5012104F12400FFF7DAFB236805460C
:1051F000002D40F0DA800E49D4F884004A6D22F484
:10520000401202434A6546E7022104F12400FFF7F9
:10521000C7FB23680546002D40F0C5800449D4F83B
:10522000A0008A6D22F4403202438A6521E700BF64
:1052300000440258012104F12400FFF7B1FB236868
:105240000546002D40F0AD80AB49A06F4A6D22F0BD
:10525000380202434A654CE6A84F3B6843F480732A
:105260003B60FBF761FE804606E0FBF75DFEA0EBCE
:105270000800642800F28C813B68DA05F5D5002D22
:1052800040F0B2819C4AD4F8B030116F594011F40B
:10529000407F0BD0116F106F21F4407140F48030CB
:1052A0001067106F20F4803010671167B3F5807FAE
:1052B00000F07C8103F44072B2F5407F00F08A81F7
:1052C0008D490A6922F47C520A618B4AC3F30B03AD
:1052D000116F0B4313672368D9E5022104F1240001
:1052E000FFF75EFB236800283FF4E4AE0126E1E609
:1052F0002E469FE42E461CE52E46BDE42E467BE45A
:105300002E46DBE40221201DFFF7C4FB054623687F
:10531000002D53D17849E06CCA6C22F480320243EC
:10532000CA64C4E67449CA6A42F40032CA6277E4C5
:105330007149CA6A42F40032CA6292E46E49CA6A8A
:1053400042F40032CA62AEE46B49CA6A42F40032E7
:10535000CA62E4E42E461FE66749606CCA6C22F01C
:1053600003020243CA648FE52E4655E66249606F28
:105370004A6D22F0070202434A65D3E55E49D4F83C
:1053800090008A6D22F0070202438A65E4E52E460A
:105390001AE52E46ADE42E46E8E42E4604E52E46F8
:1053A0001AE62E46A5E52E4663E62E4673E65249DA
:1053B000CA6A42F40032CA62002DABD02E4676E6AD
:1053C0004D48C16A41F40031C162002D7FF4DCAE6A
:1053D000E0E64949CA6A42F40032CA62002DE4D1CB
:1053E00009E7201DFFF756FB05462368002DDAD19B
:1053F00014E7022104F12400FFF7D2FA05462368DE
:10540000002DCCD1E0E5022104F12400FFF7C8FA19
:1054100005462368002DA7D1F6E5012104F12400FB
:10542000FFF7BEFA05462368002DB4D197E40121A9
:1054300004F12400FFF7B4FA05462368002DACD12F
:10544000AAE42D49CA6A42F40032CA62002D9ED1F4
:10545000BFE60221201DFFF71DFB05462368002D36
:1054600097D13FE4022104F12400FFF799FA0546A1
:105470002368002D7FF46EAF86E51F49CA6A42F4A7
:105480000032CA62002D7FF4FEAC65E7022104F110
:105490002400FFF785FAD4F88010236800283FF431
:1054A000C3AD0126C0E5022104F12400FFF778FA1C
:1054B000D4F89410236800283FF4C4AD0126C1E558
:1054C00002212430FFF76CFA0646002E3FF478AB39
:1054D0002368FFF783BB002104F12400FFF760FA83
:1054E00023680546FFF7BDBB0021201DFFF7D2FA58
:1054F0002368054659E600BF004402580048025898
:10550000002104F12400FFF74BFA236805464CE61E
:10551000002104F12400FFF743FA23680546FFF752
:10552000FEBB002104F12400FFF73AFA2368054688
:10553000FFF776BB32493546CA6A42F40032CA6286
:1055400033E6002104F12400FFF72AFA2368054618
:10555000FFF7A9BB0121201DFFF79CFA0546236830
:10556000002D7FF4DEAC01E70121201DFFF792FA48
:1055700005462368002D7FF4EEACFFE60121201DD7
:10558000FFF788FA05462368002D7FF40AAF5BE633
:105590000326236835467AE40126FFF71FBB184827
:1055A000C16A41F40031C162FFF711BBFBF7BCFCDB
:1055B000DFF84C80074641F2883904E0FBF7B4FC81
:1055C000C01B4845E4D8D8F870309B07F6D5D4F80E
:1055D000B0306FE60A480B4A016902EA131221F45F
:1055E0007C510A43026170E623682E464FE401268F
:1055F000354697E40126354646E401263546ABE4B8
:1056000000440258CFFFFF0008B5FFF763F9054BD0
:10561000054A1B6AC3F30213D35C03F01F03D8408F
:1056200008BD00BF00440258B02D0E085A4B70B49C
:10563000996A9D6ADE6A15F47C3FC5F30532DC6B1E
:105640005CD0C4F3CC04C6F3001601F0030106FBE2
:1056500004F4012907EE904AF8EEE77A03D0022914
:1056600075D000294FD007EE102A9FED4C5AF8EE66
:10567000C76A9B6B85EE267A9FED496AC3F30803E0
:1056800006EE903AF7EE005AF8EEE66A76EEA56A74
:10569000E7EE866A67EE266A3F4AB7EE006A936BCA
:1056A000C3F3462307EE103AB8EEC77A70BC37EE64
:1056B000067AC6EE877AFCEEE77AC0ED007A936B45
:1056C000C3F3064307EE103AB8EEC77A37EE067A10
:1056D000C6EE877AFCEEE77AC0ED017A936BC3F3EE
:1056E000066307EE903AF8EEE77A77EE867A86EE72
:1056F000A77ABCEEC77A80ED027A704770BCC0E929
:10570000002282607047196889063DD51C6807EE43
:10571000102A24499B6BC4F3C102B8EEC75ADFEDCF
:10572000205AC3F30803D140B7EE007A06EE903A50
:1057300006EE101AF8EEE66AB8EEC66A76EE876AEA
:1057400086EE057AE7EEA56A67EE266AA4E71649B3
:1057500007EE102A9B6BB7EE005A91ED006AF8EE47
:10576000C74AC3F30803DFED0E5AB8EE466A06EEE9
:10577000903A86EE247AF8EEE66A76EE856AE7EEEF
:10578000A56A67EE266A87E707EE102A9FED075A9B
:10579000F8EEC76A6DE700BF004402580024744A5F
:1057A000000000390090D0033C1701200024744C05
:1057B0005A4B70B4996A9D6ADE6A15F07C7FC5F316
:1057C00005525C6C5CD0C4F3CC04C6F3002601F037
:1057D000030106FB04F4012907EE904AF8EEE77A8C
:1057E00003D0022975D000294FD007EE102A9FED73
:1057F0004C5AF8EEC76A1B6C85EE267A9FED496A13
:10580000C3F3080306EE903AF7EE005AF8EEE66AA4
:1058100076EEA56AE7EE866A67EE266A3F4AB7EE3D
:10582000006A136CC3F3462307EE103AB8EEC77A4A
:1058300070BC37EE067AC6EE877AFCEEE77AC0EDEA
:10584000007A136CC3F3064307EE103AB8EEC77A3A
:1058500037EE067AC6EE877AFCEEE77AC0ED017A7B
:10586000136CC3F3066307EE903AF8EEE77A77EE2F
:10587000867A86EEA77ABCEEC77A80ED027A704708
:1058800070BCC0E9002282607047196889063DD566
:105890001C6807EE102A24491B6CC4F3C102B8EE41
:1058A000C75ADFED205AC3F30803D140B7EE007AA0
:1058B00006EE903A06EE101AF8EEE66AB8EEC66A00
:1058C00076EE876A86EE057AE7EEA56A67EE266AC7
:1058D000A4E7164907EE102A1B6CB7EE005A91EDAB
:1058E000006AF8EEC74AC3F30803DFED0E5AB8EEBC
:1058F000466A06EE903A86EE247AF8EEE66A76EE8E
:10590000856AE7EEA56A67EE266A87E707EE102A42
:105910009FED075AF8EEC76A6DE700BF00440258D2
:105920000024744A000000390090D0033C17012085
:105930000024744C5A4B70B4996A9D6ADE6A15F45F
:105940007C7FC5F305125C6B5CD0C4F3CC0406F01D
:10595000010601F0030106FB04F4012907EE904A59
:10596000F8EEE77A03D0022975D000294FD007EE70
:10597000102A9FED4C5AF8EEC76A1B6B85EE267A0B
:105980009FED496AC3F3080306EE903AF7EE005A1A
:10599000F8EEE66A76EEA56AE7EE866A67EE266AB4
:1059A0003F4AB7EE006A136BC3F3462307EE103A83
:1059B000B8EEC77A70BC37EE067AC6EE877AFCEE90
:1059C000E77AC0ED007A136BC3F3064307EE103A93
:1059D000B8EEC77A37EE067AC6EE877AFCEEE77A3B
:1059E000C0ED017A136BC3F3066307EE903AF8EE4D
:1059F000E77A77EE867A86EEA77ABCEEC77A80EDF4
:105A0000027A704770BCC0E9002282607047196852
:105A100089063DD51C6807EE102A24491B6BC4F388
:105A2000C102B8EEC75ADFED205AC3F30803D140D4
:105A3000B7EE007A06EE903A06EE101AF8EEE66A35
:105A4000B8EEC66A76EE876A86EE057AE7EEA56A54
:105A500067EE266AA4E7164907EE102A1B6BB7EE1D
:105A6000005A91ED006AF8EEC74AC3F30803DFED70
:105A70000E5AB8EE466A06EE903A86EE247AF8EEB2
:105A8000E66A76EE856AE7EEA56A67EE266A87E73C
:105A900007EE102A9FED075AF8EEC76A6DE700BFC0
