:020000040800F2
:100000000000022045C10A08698C0A086D8C0A08A4
:100010007D8C0A088D8C0A089D8C0A08000000005F
:10002000000000000000000000000000AD8C0A0885
:10003000B18C0A0800000000B58C0A08B98C0A08C7
:10004000A1C10A08A1C10A08A1C10A08A1C10A08E0
:10005000C9970A08A1C10A08C9920A08D1920A08D8
:10006000D9920A08E1920A08E9920A08A1C10A088D
:10007000A1C10A08A1C10A08A1C10A08A1C10A08B0
:10008000A1C10A08A1C10A08A1C10A08A1C10A08A0
:10009000A1C10A08A1C10A08A1C10A08A1C10A0890
:1000A000A1C10A08A1C10A08A1C10A08A1C10A0880
:1000B000A1C10A086DA00A08A1C10A08A1C10A08C5
:1000C000A1C10A08A1C10A08A1C10A08A1C10A0860
:1000D000A1C10A08CD8C0A08018E0A08358F0A08CA
:1000E000A1C10A08A1C10A0800000000A1C10A08B4
:1000F00029900A08A1C10A08A1C10A08A1C10A08D9
:10010000A1C10A08A1C10A08A1C10A08A1C10A081F
:10011000A1C10A084D900A08F1920A08C5930A087D
:10012000A1C10A08A1C10A08A1C10A08A1C10A08FF
:10013000A1C10A08A1C10A08A1C10A08A1C10A08EF
:1001400000000000000000000000000000000000AF
:10015000A1C10A08A1C10A08A1C10A0881910A081F
:10016000A1C10A08A1C10A08A1C10A08A1C10A08BF
:10017000A1C10A08A1C10A08A1C10A080000000023
:10018000A1C10A08A1C10A08A1C10A08A1C10A089F
:10019000A1C10A08A1C10A08A1C10A08A1C10A088F
:1001A000A1C10A08A1C10A08A1C10A08A1C10A087F
:1001B000A1C10A08A1C10A08A1C10A08A1C10A086F
:1001C000A1C10A08A1C10A08B5920A08C1920A0889
:1001D000A1C10A08C5920A08A1C10A08A1C10A085A
:1001E000A1C10A08A1C10A08A1C10A08A1C10A083F
:1001F000A1C10A08A1C10A08A1C10A08A1C10A082F
:10020000A1C10A08A1C10A08A1C10A08A1C10A081E
:10021000A1C10A08A5970A08A1C10A08A1C10A0834
:10022000A1C10A08A1C10A08A1C10A080000000072
:10023000A1C10A08A1C10A0800000000A1C10A0862
:10024000A1C10A08A1C10A08A1C10A08A1C10A08DE
:10025000A1C10A08A1C10A08A1C10A08A1C10A08CE
:10026000A1C10A08A1C10A08A1C10A08A1C10A08BE
:10027000A1C10A08A1C10A08A1C10A080000000022
:10028000A1C10A08A1C10A08A1C10A080000000012
:0802900000000000A1C10A08F2
:1002A000000000000000000000000000000000004E
:1002B000000000000000000000000000000000003E
:1002C000000000000000000000000000000000002E
:1002D000000000000000000000000000000000001E
:020000040804EE
:1002A0005DD10908F5CE090819CF0908597F06085C
:1002B000E56F0608C5720608ED6206087564060853
:1002C00019EB0708B9C90708A9CF0908FD83080871
:1002D000A1830808ED7F0808B0200020F820002046
:1002E0000DE30508B820002098B70020102B00204F
:1002F0000C2B0020A1CF090855CA070838BF0020E1
:10030000ECD20020F8D2002010210020B4200020E0
:10031000E9D1070809930508FD920508809C002093
:10032000FC200020E192050841D7070848BF0020C3
:10033000F42A0020F82A0020211C0B08C9FB05081C
:10034000C50A0608ED92050810B5054C237833B9A7
:10035000044B13B10448AFF300800123237010BD98
:10036000482A00200000000044360B0808B5034B63
:100370001BB103490348AFF3008008BD0000000033
:100380004C2A002044360B08EC46A0E8F05F4FF002
:1003900000007047B0E8F05FE546080008BF0120A4
:1003A000704700BF10F8012B11F8013B012A28BF4C
:1003B0009A42F7D0D01A7047034613F8012B002A4F
:1003C000FBD1181A0138704700000000000000003F
:1003D00001F0FF01102A2BDB10F0070F08D010F8F6
:1003E000013B013A8B422DD010F0070F42B3F6D1FA
:1003F000F0B441EA012141EA014122F007047FF013
:1004000000070023F0E80256083C85EA010586EA69
:10041000010685FA47F5A3FA87F586FA47F6A5FAA5
:1004200087F68EB9EED1F0BC01F0FF0102F00702B1
:1004300032B110F8013B013A83EA010313B1F8D15C
:100440000020704701387047002D06BF354603383D
:10045000073815F0010F07D1013015F4807F02BF76
:10046000013015F4C03F0130F0BC0138704700BFC7
:1004700081F0004102E000BF83F0004330B54FEA55
:1004800041044FEA430594EA050F08BF90EA020FC2
:100490001FBF54EA000C55EA020C7FEA645C7FEA55
:1004A000655C00F0E2804FEA5454D4EB5555B8BF78
:1004B0006D420CDD2C4480EA020281EA030382EAE9
:1004C000000083EA010180EA020281EA0303362D7B
:1004D00088BF30BD11F0004F4FEA01314FF4801C4E
:1004E0004CEA113102D0404261EB410113F0004F60
:1004F0004FEA03334CEA133302D0524263EB430317
:1005000094EA050F00F0A780A4F10104D5F1200EB4
:100510000DDB02FA0EFC22FA05F2801841F100010F
:1005200003FA0EF2801843FA05F359410EE0A5F1E3
:1005300020050EF1200E012A03FA0EFC28BF4CF014
:10054000020C43FA05F3C01851EBE37101F00045CA
:1005500007D54FF0000EDCF1000C7EEB00006EEBD7
:100560000101B1F5801F1BD3B1F5001F0CD3490861
:100570005FEA30004FEA3C0C04F101044FEA4452B8
:1005800012F5800F80F09A80BCF1004F08BF5FEA3F
:10059000500C50F1000041EB045141EA050130BD1F
:1005A0005FEA4C0C404141EB0101013C28BFB1F531
:1005B000801FE9D291F0000F04BF01460020B1FA7C
:1005C00081F308BF2033A3F10B03B3F120020CDA4F
:1005D0000C3208DD02F1140CC2F10C0201FA0CF02D
:1005E00021FA02F10CE002F11402D8BFC2F1200C92
:1005F00001FA02F120FA0CFCDCBF41EA0C01904048
:10060000E41AA2BF01EB0451294330BD6FEA040490
:100610001F3C1CDA0C340EDC04F11404C4F120027B
:1006200020FA04F001FA02F340EA030021FA04F38D
:1006300045EA030130BDC4F10C04C4F1200220FAE4
:1006400002F001FA04F340EA0300294630BD21FA22
:1006500004F0294630BD94F0000F83F4801306BFE8
:1006600081F480110134013D4EE77FEA645C18BFDC
:100670007FEA655C29D094EA050F08BF90EA020F73
:1006800005D054EA000C04BF1946104630BD91EA6B
:10069000030F1EBF0021002030BD5FEA545C05D16E
:1006A0004000494128BF41F0004130BD14F58004AD
:1006B0003CBF01F5801130BD01F0004545F0FE4121
:1006C00041F470014FF0000030BD7FEA645C1ABF56
:1006D000194610467FEA655C1CBF0B46024650EA8D
:1006E000013406BF52EA033591EA030F41F40021B9
:1006F00030BD00BF90F0000F04BF0021704730B53F
:100700004FF4806404F132044FF000054FF0000113
:1007100050E700BF90F0000F04BF0021704730B5D4
:100720004FF4806404F1320410F0004548BF4042A9
:100730004FF000013EE700BF42004FEAE2014FEAFE
:1007400031014FEA02701FBF12F07F4393F07F4FD9
:1007500081F06051704732F07F4208BF704793F0DC
:100760007F4F04BF41F40021704730B54FF46074EF
:1007700001F0004521F000411CE700BF50EA0102F2
:1007800008BF704730B54FF000050AE050EA01029B
:1007900008BF704730B511F0004502D5404261EB0B
:1007A00041014FF4806404F132045FEA915C3FF44C
:1007B000D8AE4FF003025FEADC0C18BF03325FEAE9
:1007C000DC0C18BF033202EBDC02C2F1200300FA9A
:1007D00003FC20FA02F001FA03FE40EA0E0021FABF
:1007E00002F11444BDE600BF80F0004002E000BF0B
:1007F00081F0004142001FBF5FEA410392EA030F0C
:100800007FEA226C7FEA236C6AD04FEA1262D2EB55
:100810001363C1BFD218414048404140B8BF5B425A
:10082000192B88BF704710F0004F40F4000020F0F3
:100830007F4018BF404211F0004F41F4000121F009
:100840007F4118BF494292EA030F3FD0A2F1010253
:1008500041FA03FC10EB0C00C3F1200301FA03F191
:1008600000F0004302D5494260EB4000B0F5000FB4
:1008700013D3B0F1807F06D340084FEA310102F173
:100880000102FE2A51D2B1F1004F40EBC25008BF25
:1008900020F0010040EA03007047490040EB0000EF
:1008A000013A28BFB0F5000FEDD2B0FA80FCACF1F0
:1008B000080CB2EB0C0200FA0CF0AABF00EBC2501D
:1008C00052421843BCBFD0401843704792F0000F0B
:1008D00081F4000106BF80F400000132013BB5E75E
:1008E0004FEA41037FEA226C18BF7FEA236C21D0D4
:1008F00092EA030F04D092F0000F08BF0846704739
:1009000090EA010F1CBF0020704712F07F4F04D106
:10091000400028BF40F00040704712F100723CBF19
:1009200000F50000704700F0004343F0FE4040F443
:10093000000070477FEA226216BF08467FEA236301
:100940000146420206BF5FEA412390EA010F40F4EC
:10095000800070474FF0000304E000BF10F0004338
:1009600048BF40425FEA000C08BF704743F096431F
:1009700001464FF000001CE050EA010208BF70473A
:100980004FF000030AE000BF50EA010208BF7047C1
:1009900011F0004302D5404261EB41015FEA010CD6
:1009A00002BF84460146002043F0B64308BFA3F1CE
:1009B0008053A3F50003BCFA8CF2083AA3EBC253B0
:1009C00010DB01FA02FC634400FA02FCC2F12002CF
:1009D000BCF1004F20FA02F243EB020008BF20F006
:1009E0000100704702F1200201FA02FCC2F120026C
:1009F00050EA4C0021FA02F243EB020008BF20EA61
:100A0000DC7070477BB972B90029BEBF00204FF07F
:100A1000004106E008BF00281CBF6FF000414FF006
:100A2000FF3000F013BAADF1080C6DE904CE0029D7
:100A300009DB002B1ADB00F0A7F8DDF804E0DDE9A4
:100A4000022304B07047404261EB4101002B1BDBE5
:100A500000F09AF8DDF804E0DDE9022304B040423A
:100A600061EB4101524263EB43037047524263EB37
:100A7000430300F089F8DDF804E0DDE9022304B067
:100A8000404261EB41017047524263EB430300F087
:100A90007BF8DDF804E0DDE9022304B0524263EBA9
:100AA0004303704753B94AB9002908BF00281CBF47
:100AB0004FF0FF314FF0FF3000F0C8B9ADF1080C36
:100AC0006DE904CE00F060F8DDF804E0DDE9022312
:100AD00004B0704708B502460B4643EC172BB5EE41
:100AE000C07BF1EE10FA03D4BDE8084000F02CB84A
:100AF000B1EE477B51EC170B00F026F8404261EB5A
:100B0000410108BD000000009FED0B6B07EE900A4D
:100B10009FED0B5BB7EEE77A27EE066BBCEEC66B7C
:100B2000B8EE464BA4EE457BFCEEC77B16EE101AE2
:100B300017EE900A704700BF000000000000F03D73
:100B4000000000000000F0419FED0B6B41EC170B23
:100B50009FED0B5B27EE066BBCEEC66BB8EE464B0B
:100B6000A4EE457BFCEEC77B16EE101A17EE900A3A
:100B7000704700BFAFF30080000000000000F03DB0
:100B8000000000000000F0412DE9F047089D0446F8
:100B90008C46002B40F083808A42174647D9B2FA30
:100BA00082F242B1C2F1200024FA00F09140974055
:100BB00040EA010C94404FEA1748230CBCFBF8F6BE
:100BC0001FFA87FE08FB16C143EA014306FB0EF13C
:100BD000994209D9FB1806F1FF3080F0198199423A
:100BE00040F21681023E3B445B1AA4B2B3FBF8F01C
:100BF00008FB103344EA034400FB0EFEA64509D966
:100C00003C1900F1FF3380F00581A64540F20281D6
:100C100002383C4440EA0640A4EB0E0400261DB115
:100C2000D4400023C5E900433146BDE8F08702B94E
:100C3000FFDEB2FA82F2002A50D1CB1B4FEA174EE8
:100C40001FFA87F80126B3FBFEFC210C0EFB1C33B8
:100C500041EA034108FB0CF38B4207D979180CF1E8
:100C6000FF3002D28B4200F2E9808446C91AA3B257
:100C7000B1FBFEF00EFB101143EA014408FB00F843
:100C8000A04507D93C1900F1FF3302D2A04500F27C
:100C9000D9801846A4EB080440EA0C40BFE78B4219
:100CA00009D9002D00F0B1800026C5E900013046C9
:100CB0003146BDE8F087B3FA83F6002E4AD18B4265
:100CC00002D3824200F2B880841A61EB0301012052
:100CD0008C46002DA8D0C5E9004CA5E7C2F1200341
:100CE00020FA03F6974001FA02F04FEA174ED94076
:100CF0003043030CB1FBFEF61FFA87F80EFB16110A
:100D000043EA014306FB08F1994204FA02F409D9C7
:100D1000FB1806F1FF3C80F08D80994240F28A80FA
:100D2000023E3B445B1A81B2B3FBFEF00EFB103374
:100D300041EA034100FB08F38B4207D9791800F11F
:100D4000FF3C73D28B4271D902383944CB1A40EA46
:100D5000064678E7C6F1200C03FA06F422FA0CF3F3
:100D60001C4320FA0CF701FA06F34FEA144E21FA5D
:100D70000CF11F433B0CB1FBFEF91FFA84F80EFB8C
:100D8000191143EA014109FB08FA8A4502FA06F201
:100D900000FA06F308D9611809F1FF3048D28A45F4
:100DA00046D9A9F102092144A1EB0A01BFB2B1FB66
:100DB000FEF00EFB101147EA014700FB08F8B845AA
:100DC00007D9E71900F1FF312ED2B8452CD90238E6
:100DD000274440EA0940A7EB0807A0FB02894F45DA
:100DE000C64649461AD317D05DB1B3EB0E0267EB86
:100DF000010707FA0CFCF2404CEA0202F740C5E991
:100E0000002700263146BDE8F0872E4628460BE72E
:100E10000646E9E61846FDE64345E5D2B8EB020E84
:100E200069EB04010138DFE70846D2E760468DE749
:100E30008146B9E7664675E730464AE7ACF1020CF1
:100E4000394413E702383C4424E700BF704700BF31
:100E500038B50E4D2B780BB9012038BD04464FF440
:100E60007A700B4AB0FBF3F31068B0FBF3F000F0BC
:100E7000E9FF0F2CF0D80028EED1002221464FF0D8
:100E8000FF3000F083FF00206C6038BD00000020C0
:100E90006028002038B50320124C00F063FF124D8B
:100EA00003F04CFC114B0246002099699B69C1F389
:100EB000032103F00F03615CE35C01F01F010C4CA4
:100EC00003F01F03CA4022FA03F322602B60FFF7EE
:100ED000BFFF10B10124204638BD044667F090F9E9
:100EE000204638BD88350D0864280020004402588B
:100EF00060280020034A044B11681B780B441360E0
:100F0000704700BF043A002000000020014B186821
:100F1000704700BF043A002038B50446FFF7F6FFDB
:100F20000546631C02D0044B1B781C44FFF7EEFF00
:100F3000431BA342FAD338BD00000020014B1868C0
:100F4000000C70470010005C3E4A036893422DE994
:100F5000F04106460C4655D002F58072934251D0BE
:100F6000394A35699768082D07F01F070AD0092FFD
:100F70004AD840F22121F940C90745D5DB68DA0794
:100F800046D40425FFF7C2FF8046326801E0631CA7
:100F900027D113682B42FAD0736D43F40073736545
:100FA000D36813F4406F0FD1737D6BB913681807C2
:100FB0000AD5736D23F480737365736DD90403D4FC
:100FC000736D43F001037365204B9A422BD0D068B8
:100FD000082D24D010F4804031D10C231360BDE8DB
:100FE000F081FFF793FFA0EB0800A04201D8002C8E
:100FF000CBD1736D0022032043F0040386F8502008
:101000007365ECE7124AACE7936813F4404FB8D02D
:10101000736D012043F020037365BDE8F08100206B
:101020001560BDE8F081092F02D9064BD868CFE7DB
:1010300040F2212323FA07F7FB07C8D4F5E7002085
:10104000BDE8F08100200240006302580021024008
:10105000002302400368186C704700BFF0B50022FF
:1010600083B0019290F85020012A00F02B810346B2
:1010700001201A6883F850009468660700F199808F
:101080000C68C4F31305002D40F09E80C4F3846CFB
:1010900000FA0CF04C681F26D569A7093440284394
:1010A00002F1300507F00C07A640D0610CFA04F4F9
:1010B000785920EA0600204378519068450700F1EE
:1010C0008180956815F0080557D10C6802F1140667
:1010D00007208F684FEAD45CC4F304540CF0040C6E
:1010E00000FA04FE07FA04F4BC4F5CF8060020EA9C
:1010F0000E0020434CF80600386800F07040B0F154
:10110000805F00F09980D068D66810F0100F4869B1
:1011100040F0F880C6F38206760000FA06F60F6902
:10112000042F00F0D28002F16004086854F827C050
:1011300000F0F8400CF0004C40EA0C00304344F85A
:1011400027004F7E0E69012F54F826000CBF4FF088
:101150000047002720F00040384344F826000C7E6A
:101160000869012C04D100F01F004FF40065854090
:10117000106920F4F040054315619068C40716D447
:10118000CE68086806F01807954CD2F8C050FC40AD
:10119000C0F31307DFF86CC2044025EA0705664573
:1011A00044EA0504C2F8C0404ED0002816DB0020F7
:1011B00003E05A6D42F020025A65002283F8502065
:1011C00003B0F0BD9068D8E794FAA4F5B5FA85F5B8
:1011D000C4F3846C05F01F04A0405BE781498A4298
:1011E00000F0B68001F580718A4200F0B1807E4E39
:1011F0007E4DA968B46801F0E076E44304F0010490
:10120000002C00F0B3807A4CA04200F0FD80794CB5
:10121000A04200F01B81784CA042C8D14902C6D43C
:1012200071498A42C3D1AA68002022F0E072324399
:1012300042F48002AA60C0E7D6684869C6F3820615
:10124000760000FA06F66AE7002F61D090FAA0F463
:10125000B4FA84F4013404F01F04092C00F29B80DA
:1012600090FAA0F4B4FA84F490FAA0F50126B5FA45
:1012700085F501343544A40605F01F0504F0F84453
:1012800006FA05F52C4390FAA0F0B0FA80F030444D
:1012900000F01F0000EB400000052043C70D02F1E5
:1012A0001405C0F304504FF0070C07F004078E68D4
:1012B0000CFA00FC7C59864024EA0C00304378513B
:1012C000086872E7022003B0F0BD106E0D6800F0F0
:1012D000F840AC06B0EB856F30D0506E00F0F840AF
:1012E000844226D0906E00F0F84084422BD0D06E1D
:1012F00000F0F84084427FF440AFD06E20F0004010
:10130000D0663AE7760806F0080600FA06F606E721
:10131000800E441C04F01F06092E2DD8A4060125BA
:1013200006EB460004F0F84405FA06F600053443DF
:10133000B3E7506E20F000405066D3E7106E20F007
:1013400000401066C9E7906E20F000409066CEE73E
:101350002A49244E2A4C0D468968B768A46801F0D2
:10136000E0763C43E44304F0010449E75A6D012070
:1013700042F020025A6520E706EB46000127A50649
:101380001E3807FA06F605F0F8450005354340F02B
:101390000070284382E790FAA0F5B5FA85F590FA37
:1013A000A0F40126B4FA84F401353444AD0604F007
:1013B0001F0405F0F84506FA04F4254390FAA0F45A
:1013C000B4FA84F4344404F01F0404EB4404A4F19C
:1013D0001E00000540F00070DBE700BF0010005C5D
:1013E000FFFF0F0000200240006002580063025817
:1013F000000084CB000052C70000B8CF0023024099
:10140000002102400000FF4708023FF5D0AE174917
:101410008A427FF4CCAE164AA9681268154821F0BA
:10142000E07192093143A0FB020241F400019209EC
:10143000A96052000192019A002A3FF4B8AE019AC5
:10144000013A0192019A002AF9D1B0E611F08070B8
:101450007FF4ADAE05498A427FF4A9AEAA6822F0B6
:10146000E072324342F08072AA60A6E60060025841
:1014700060280020632D3E0503689A6812F0040F6F
:101480009A6870B5044603D1120701D4002070BDDC
:10149000DA68950104D5A08A40F2011290421AD070
:1014A00002299A683ED0550708D59A68900705D456
:1014B00098682C4A024042F010029A60012919D023
:1014C0009A68120702D59A68900732D5032914BF8B
:1014D00004260C260FE01A68500606D4224A01E0C2
:1014E000013A16D019684906FAD540221A609A685E
:1014F000560725D40426FFF709FD054604E0FFF74B
:1015000005FD431B052B04D823689B683342F6D1A5
:10151000BCE7636D012043F010036365A36D0343D3
:10152000A36570BD150702D59A68920713D50826E2
:10153000E1E798680B4A024042F020029A60C5E752
:101540009A689607D6D499680426064A0A4042F05B
:1015500010029A60CFE79968024A0A4042F02002DE
:101560009A60E4E7C0FFFF7F00DC0C0003689A6824
:10157000D20701D50020704799681F4A114270B503
:10158000044627D199681D4A0A4042F001029A6038
:10159000FFF7BCFC23681A4A0546934223D002F5A4
:1015A000807293421FD0174A9268144E0DE09A68D9
:1015B000D10704D49A68324042F001029A60FFF7E2
:1015C000A5FC431B022B05D823681A68D207EED569
:1015D000002070BD636D012043F010036365A36DAF
:1015E0000343A36570BD084A9268D006DDD0074A60
:1015F0009342DAD1ECE700BF3F000080C0FFFF7FDD
:1016000000200240006302580023024000210240F3
:10161000394A0368934270B5044645D002F580729A
:10162000934241D0354A96689D6815F0040541D132
:1016300094F85030012B3DD00123204684F85030DF
:10164000FFF794FF002837D1616D06F01F062C4A82
:1016500023680A402B4942F480728B42626544D071
:101660001946626D22F480126265626D12F4805236
:101670003FD0A26D22F00602A2651C2500228B42FB
:101680001D6084F8502020D0092E18D9636D43F4D2
:1016900080136365CB689B0105D5636D23F44053CC
:1016A00043F48053636570BD174A96689D6815F0D2
:1016B0000405BDD0022070BD84F8505070BD40F2CA
:1016C000212222FA06F6F507E0D5DA68920105D55F
:1016D000626D22F4405242F48052626599680B4A6E
:1016E0000A4042F004029A6070BD0349002EB8D04F
:1016F000BBE7A265C1E700BF0020024000630258BB
:10170000FEF0FFFF0021024000230240C0FFFF7FE8
:1017100038B503689A68910702D59B68002038BDE8
:101720009A68D20723D59A68044602F00D02012A6E
:1017300008D0636D012043F010036365A36D03437C
:10174000A36538BD986803210A4A024042F00202AC
:101750009A601960FFF7DAFB054604E0FFF7D6FB55
:10176000401B0228E5D823689B68DB07F6D40020DD
:1017700038BD00BFC0FFFF7FF8B5002800F0B18082
:10178000436D0446032143F002034365FFF774FEF3
:1017900023680546DA6842F40012DA60002800F097
:1017A0008A80586840F2FF7651490022514F01402B
:1017B000514859601E609E68504926F0A0469E60C0
:1017C0009E6846F000569E60DE6806F08026DE6069
:1017D000DE6846F00046DE601E69304018615869D8
:1017E00000F040405861986900F078409861186AAC
:1017F00000F07C401862586A00F07C405862D3F8D0
:10180000B00000F07C40C3F8B000D3F8B40000F0A2
:101810007C40C3F8B400D3F8B86006F07C46C3F847
:10182000B860D3F8BC6006F07C46C3F8BC60186BA7
:10183000334E01401963596B39405963986B3149F4
:1018400038409863D86B06402F48DE6383421E6E93
:101850001A665E6E5A669E6E9A66DE6EDA66D3F819
:10186000A02002EA0102C3F8A020D3F8A42002EAD3
:101870000102C3F8A420D3F8C02002EA0102C3F891
:10188000C020D3F8C42002F0F822C3F8C4201BD033
:101890001E4A934218D01E4B9B68DB0724D5204676
:1018A00066F0ACFC00232846A36584F850306365DD
:1018B000C4E91733F8BD2046FFF72AFF0546A8B94B
:1018C0000122236862656CE70F4A104B92689B689F
:1018D0001343DA07E3D40F4A91680F4B0B40936030
:1018E000DDE701252846F8BD0C4AF5E7236858E7EF
:1018F00000F8FFFF200882E01CF800FC300882E0BE
:1019000020F8FFFF0000F0FF00200240002102400D
:101910000060025800230240E03000FE00630258DD
:1019200038B55A4A04460368934229D002F58072BA
:10193000934225D0564B9B6813F4403F14BF0123BC
:10194000002333B303F0C4F863680546B3F5003FE2
:1019500000F08B80B3F5403F6FD0B3F5803F00F0CF
:101960008480FFF7EBFA41F2030398424ED8494BCB
:101970009D422DD92268936843F48073936038BDEB
:10198000454B9B6813F4403F14BF01230023002BF9
:10199000D8D14FF4002004F03BF963680546B3F555
:1019A000101F6CD008D8B3F5E01F50D016D9B3F58E
:1019B000001FD6D14509D4E7B3F5201F45D0B3F5B4
:1019C000301FCED1FFF7BAFA41F20303984240D854
:1019D0002268936823F48073936038BDB3F5801F49
:1019E00006D00AD9B3F5A01F02D0B3F5C01FB8D1F5
:1019F0009B0C5B00B5FBF3F5B3E7B3F5002FF7D015
:101A000023F40022B2F5802FF2D0AAE7234B9D42A7
:101A100005D82268936823F44073936038BD204B47
:101A20009D421AD91F4B22689D42936829D823F4FE
:101A3000407343F40073936038BD8508FFF77EFA66
:101A400041F203039842E1D891E7C50989E7050906
:101A500087E7124BB3EB152FDBD22268936823F490
:101A6000407343F48073936038BD1B0CB5FBF3F5F2
:101A7000FFF764FA41F203039842C7D877E7850974
:101A80006FE743F44073936038BD00BF002002400D
:101A900000630258002D31010023024021BCBE002A
:101AA00041787D0181F0FA0270B5002382B0019384
:101AB000002800F0CF80456D0446002D00F0B9806D
:101AC000226893689D0003D59168714B0B40936029
:101AD0009368D80015D46F4B90681B686E4D9B09B6
:101AE0006E49A5FB035301409B0941F08051916071
:101AF0000193019B2BB1019B013B0193019B002BA7
:101B0000F9D19368D90024D4636D012543F0100303
:101B10006365A36D2B43A365936813F0040F636D96
:101B20001DD1DB061BD4636D23F4817343F00203E4
:101B300063659368DE0728D4594B9A4217D003F5A2
:101B400080739A4213D0574B9B68D9071DD4564ACD
:101B500015E09368002513F0040F636DE1D0636D09
:101B6000012543F010032846636502B070BD4C4A5E
:101B70004E4B92689B681343D80706D44C4A93682F
:101B8000616823F47C130B439360FFF7D7F941F2AC
:101B90000303A1689842237F51D8667D1A04206B05
:101BA00042EA463202430A43012B03D1236A013B36
:101BB00042EA4342636A23B103F47873A16A0B4398
:101BC0001A4323683B49D86801400A43DA609A689F
:101BD00012F0040F9A681CD112071AD4D968364A39
:101BE000207D0A40E16A42EA80320A43DA6094F8D2
:101BF0003820012A3AD01A6922F001021A611A69C2
:101C00002046616B22F070420A431A61FFF788FE9A
:101C10002368E268012A21D01A6B22F00F021A63AE
:101C2000636D284623F0030343F00103636502B0AC
:101C300070BD66F0C5FAA56584F8505040E71029DC
:101C4000ABD1607D1A04216B42EA40320A4342F074
:101C50001C02A9E70125284602B070BD196BA269D4
:101C600021F00F01013A0A431A63D9E7D4E90F12B0
:101C7000666C0139A06C32431E6942EA01420F4989
:101C8000024331400A4342F001021A61B7E700BF44
:101C9000C0FFFF5F60280020632D3E05C0FFFF6F7F
:101CA00000200240006002580063025800210240F8
:101CB0000023024003C0F0FFFCBFFFFF1EF800FC42
:101CC000F0B50D4690F8501083B00026012901961A
:101CD0003ED001230446174680F85030FFF718FD28
:101CE000636DE0B91C4E07F08042216805F4803531
:101CF0001E401A4B1A4F46F0020666658E68334046
:101D000013432B4343F000438B608B68002B0EDBA7
:101D1000636D23F0030343F00103636502E043F0C6
:101D200010036365002384F8503003B0F0BD019BBD
:101D300001330193019BBB42E7D3636D0022012075
:101D400023F0120384F8502043F010036365ECE79E
:101D5000022003B0F0BD00BFFDEEFFFFC0FFFE3F5D
:101D600000F8C32507490002074BCA6800F4E06089
:101D700010B44FF6FF0422405DF8044B10430343B8
:101D8000CB60704700ED00E00000FA05194BDB68FE
:101D9000C3F3022330B4C3F107051C1D042D28BF73
:101DA0000425062C19D9033B4FF0FF349C4022EA4E
:101DB00004024FF0FF34002804FA05F421EA04017C
:101DC00001FA03F141EA02010ADB09010A4BC9B237
:101DD000034483F8001330BC704700221346E8E741
:101DE00000F00F000901054BC9B20344197630BC5D
:101DF000704700BF00ED00E000E100E0FCEC00E017
:101E0000002807DB00F01F0101234009024A8B4034
:101E100042F82030704700BF00E100E000280DDBF1
:101E20004309012200F01F000549203302FA00F0A7
:101E300041F82300BFF34F8FBFF36F8F704700BF90
:101E400000E100E00138B0F1807F0DD2074B0022A5
:101E5000072130B4F025064C5860104684F8235012
:101E60009A60196030BC70470120704710E000E0B4
:101E700000ED00E0044A042813680CBF43F004039B
:101E800023F004031360704710E000E0704700BFC8
:101E900008B5FFF7FBFF08BD88B110B5037904460C
:101EA00003F0FF023BB100230221012221711846F9
:101EB0002361227110BD427166F0ECF9F3E7012055
:101EC000704700BF4279012A26D0034601220068EC
:101ED00070B4022401F010051C71AA400668324358
:101EE0000260026871B902F03E02A24203D1426868
:101EF00042F00102426000220121104619715A711C
:101F000070BC7047AC4002F47812A242F3D1426830
:101F100042F002024260EEE70220704710B400680F
:101F200083B000240194019051B9019908310A4409
:101F30000192019A0020136003B05DF8044B7047D2
:101F4000019914310A440192F3E700BF704700BFC2
:101F500038B5056804462B689B0402D56B6B990461
:101F600018D42B689A0002D56B6B9B0000D438BD47
:101F700004234FF0005220462371236943F00203EB
:101F800023616A632B6823F080532B60BDE83840DF
:101F900000F0C6B804234FF400520371036943F004
:101FA000010303616A632B6823F480532B60FFF7FE
:101FB000CDFFD6E72DE9F04143790F68012B00F002
:101FC0009580154602230122042F06460C464271D5
:101FD00003714AD005F0100201682369012B08D172
:101FE0001F25886B63699540934020EA05000343F1
:101FF0008B630720E568CB6B9040012D23EA00003E
:102000002ED0022DA5682ED0B5FA85F35B092B439F
:102010004FF48048656840F6FE743B4308FA02F8C6
:1020200004FA02F795409340C0244FF0000C4FF0A3
:10203000010E034394406046CB630B6823EA080318
:102040000B600B6823EA07032B430B600A6822EA44
:1020500004020A6086F804E086F805C0BDE8F08155
:10206000A5680023D3E70123D1E7FEF74FFF07461A
:10207000C5B9DFF8908004E0FEF748FFC31B012BD1
:1020800037D833685B6B13EA080FF5D10120FEF7F0
:1020900043FF3168A3690B640EE0FEF737FFC31BF3
:1020A000012B26D833685B6B002BF6DB0120FEF793
:1020B00033FF3168A3694B6405F0100240F2FF3C26
:1020C000886CFF23E7690CFA02FC03FA02F5236A25
:1020D000974020EA0C0038432768886403FA02F02E
:1020E000CB6C23EA05030343CB6476E70220BDE80B
:1020F000F0813369032243F00803104633613271E3
:10210000ACE700BF0080002008290CBF42EA03238F
:1021100042EA03430268002020328B50704700BF20
:10212000704700BF704700BF704700BF70B5744D67
:10213000744C2B69DA0313D52378012BDEB200F03F
:102140008E802378022BDDB200F0B680072D00F0E0
:10215000B380032D00F09980043D022D00F2988099
:10216000674DD5F81031DB0310D52378042B57D0F9
:10217000237803F0FD02DBB2052A00F09280062BE3
:1021800000F0B980013B022B00F28E805C4A13699B
:1021900013F4DC0310D0A1691943A16153612378C2
:1021A000012BDAB233D0022A79D0072A77D0002364
:1021B00020692370FFF7B8FF5149D1F8103113F4AB
:1021C000DC0313D0A2691A4342F00042A261C1F8B5
:1021D00014312378042BDAB238D002F0FD02052A3C
:1021E00051D1002302202370FFF79EFF237803F0D4
:1021F000FF015BB9424BDA6822F4DE02DA60D3F801
:102200000C2122F4DE02C3F80C21217570BD4FF0C1
:10221000FF33E068E36000232370FFF785FFCBE71F
:102220006368013B63606368002B58D0E068FFF788
:1022300079FF4FF480330221C5F81431E36801338C
:10224000E360E068A26800F097F99FE74FF0FF3382
:10225000E068E36000232370FFF766FFC6E763686A
:10226000013B636063687BB3E068FFF75BFF4FF49B
:10227000803331466B61E3680133E360E068A26854
:1022800000F07AF96CE72069E4E72069FFF74AFF7C
:1022900000211B4B4FF4803221705A6160E701200E
:1022A000B9E70220FFF73EFF0021154B4FF48032C3
:1022B0002170C3F8142169E7043D0120FFF732FFC4
:1022C000022D7FF64DAFE3E74FF0FF32E26023705F
:1022D000E068FFF727FF4FF480336B6140E74FF072
:1022E000FF32E2602370E068FFF71CFF4FF4803399
:1022F000C5F814314AE72069FFF714FFD4E700BF9F
:1023000000200052083A00200F4BDA68D20706D5A9
:102310000E490F4A59605A60DB68DB0711D40A4B3B
:10232000D3F80C0110F001000AD00849084AC3F89C
:102330000411C3F80421D3F80C0100F00100704728
:1023400070470120704700BF0020005223016745FD
:10235000AB89EFCD2DE9F8430F46314C0546266990
:10236000FEF7D4FD022F81463ED02E4B042406EA10
:1023700003082B4E042C15D0D6F8103124EA0303A1
:1023800013F0040F0CBF0123002383B16B1CF1D0A9
:10239000FEF7BCFDA0EB0900A84201D8002DE9D151
:1023A000032013E03369C3F38003002BEED138F030
:1023B000004222D1012F1A4A0AD0D2F81011C903C3
:1023C0000FD54FF480311846C2F81411BDE8F883D8
:1023D0001169C80305D54FF4803118465161BDE835
:1023E000F8831846BDE8F883D4F810310D4A0E4C36
:1023F00003EA020848F00048BBE70C49B8F1000FB7
:102400004FF001008B6943EA08038B61044B03DA48
:10241000C3F81421BDE8F883C3F81480BDE8F8833D
:10242000002000520000EE1704000080083A00204F
:10243000F8B52E4E307D01284FD001F178430127A9
:102440000D461446B3F5801F377535D3A1F10163EE
:10245000B3F5801F3FD2002302214CF25030B3610C
:10246000FFF778FF28BB224A0227D2F80C313B4302
:10247000C2F80C312246BFF36F8FBFF34F8F2B1B77
:1024800004F120011068D05004328A42FAD1BFF31F
:102490006F8FBFF34F8F4CF250303946FFF75AFF22
:1024A000012F134A1BD0D2F80C3123F00203C2F8DB
:1024B0000C3100233375F8BD002339464CF25030FF
:1024C000B361FFF747FF0028F3D1094AD36843F00F
:1024D0000203D360CEE73846F8BD0220F8BDD368CA
:1024E00023F00203D36000233375E4E7083A0020A9
:1024F0000020005201F00303032B22D0CA070BD5A2
:102500001C4BDA6822F03002DA60DA680243DA60E3
:10251000DA6842F08802DA608B0711D5154BD3F8E0
:102520000C2122F03002C3F80C21D3F80C21104307
:10253000C3F80C01D3F80C2142F08802C3F80C2137
:1025400070470C4BDA6822F03002DA60D3F80C21C5
:1025500022F03002C3F80C21DA680243DA60D3F8C3
:102560000C211043C3F80C019A6942F010029A61E1
:10257000704700BF0020005210B4CC070BD5104CA0
:10258000E36823F4E663E360E36843EA002313436C
:1025900043F08403E3608B070FD50949D1F80C3170
:1025A00023F4E663C1F80C31D1F80C3143EA002082
:1025B000024342F08402C1F80C215DF8044B7047DD
:1025C0000020005238B5364D2B7D012B51D0012310
:1025D000002204462B754168AA61CA0721D48B07E3
:1025E00036D502214CF25030FFF7B4FE10BB6168C3
:1025F000C8074DD401F0020252B32A4AD2F80C3176
:1026000043F4DE03C2F80C312368012B23D10229E5
:102610000CBF052307232B702069FFF76BFF0020F9
:1026200038BD19464CF25030FFF794FE30B1636864
:10263000990727D4002301202B7538BD61688B07CB
:10264000CFD4CA0704D5174AD36843F4DE03D36056
:102650002368012B11D001290DD004232B70A06811
:10266000D4E903326B60E860AA60FFF785FF0020C1
:1026700038BD022038BD2970F1E70129C7D10223F6
:102680002B70C9E702214CF25030FFF763FED1E70F
:10269000044801F00202C36843F4DE03C360ABE701
:1026A000083A0020002000522DE9F04F0E6885B056
:1026B000002E00F0D3800023DFF820A2DFF820B244
:1026C000B14620E0DA0803F0070C04F003044FF0F1
:1026D0000F0E00EB82020E694FEA8C0C04FA07F72A
:1026E000146A0EFA0CFE06FA0CF624EA0E0C46EA00
:1026F0000C061662026815403D430560013339FA45
:1027000003F200F0AB8001229A4012EA0908F5D0EA
:102710004C685F0024F0100C0CF1FF35012D4FF0D8
:10272000030500F29E80C4F30016D0F808E0BD4017
:102730009E402EEA050EED430196CE68BE4046EA65
:102740000E0E019EC0F808E0D0F804E02EEA020266
:1027500016434660C668BCF1020F8A6806EA0506A1
:1027600002FA07F242EA0602C260ABD0066804F041
:1027700003022E4002FA07F73E430660E600BDD58D
:10278000DAF8F46023F0030703F003020F2546F0A4
:10279000020607F1B0479200CAF8F46007F58067B7
:1027A000DAF8F46005FA02FC06F002060396424EDF
:1027B000039DB042BD6825EA0C0520D006F5806671
:1027C000B04256D03D4EB04258D03D4EB0424BD0B4
:1027D0003C4EB0425CD03C4EB0425ED03B4EB0422C
:1027E00051D03B4EB0425DD03A4EB0425FD03A4EEF
:1027F000B0420CBF09260A2606FA02F21543BD6054
:102800006FEA0806DBF80020E50303F1010354BF7B
:10281000324048EA0202CBF80020A203DBF8045061
:102820004FF0B04254BF354048EA0505E702CBF807
:10283000045015684FF0B04254BF354048EA0505D2
:10284000A4024FF0B0441560526854BF324048EAC9
:102850000202626039FA03F27FF455AF05B0BDE8B9
:10286000F08FBD40ED4375E7032606FA02F21543EB
:10287000C5E7012606FA02F21543C0E7022606FA6A
:1028800002F21543BBE7062606FA02F21543B6E745
:10289000042606FA02F21543B1E7052606FA02F20B
:1028A0001543ACE7072606FA02F21543A7E7082608
:1028B00006FA02F21543A2E7000002580008025887
:1028C000000C025800100258001402580018025858
:1028D000001C0258002002580024025800440258EC
:1028E00080000058002900F0AC8000232DE9F04F53
:1028F000DFF870A183B0DFF87091DFF87081DFF846
:1029000070B14FF0010E0EFA03F414EA010C73D00B
:1029100023F0030503F003020F26484555444FEA10
:102920008202AF6806FA02F607EA0607019723D08B
:1029300058456AD0464FB8426AD0464FB84271D027
:10294000454FB84273D0454FB84266D0444FB84265
:1029500059D0DFF820E1704574D0DFF81CE17045F4
:102960006AD0DFF818E1704514BF4FF00A0E4FF03F
:10297000090E0EFA02F200E00022019F974219D1DF
:10298000D8F800704FF0B04227EA0C07C8F8007082
:10299000D8F8047027EA0C07C8F80470176827EA0B
:1029A0000C071760576827EA0C075760AA6822EAE5
:1029B0000606AE605A000326D0F800C00F2723FA9F
:1029C00006F5964003F0070200EB85054CEA060C7D
:1029D0009200C0F800C097402A6A22EA07022A62E1
:1029E000C26822EA0602C260426822EA0404446025
:1029F000826822EA06068660013331FA03F280D14A
:102A000003B0BDE8F08F4FF0060E0EFA02F2B4E705
:102A10004FF0020E0EFA02F2AFE74FF0050E0EFA7B
:102A200002F2AAE74FF0030E0EFA02F2A5E74FF00A
:102A3000040E0EFA02F2A0E74FF0080E0EFA02F2B0
:102A40009BE770474FF0070E0EFA02F295E700BFC2
:102A500000080258000C02580010025800140258D6
:102A60000018025800040058000002588000005866
:102A700000040258001C025800200258002402588A
:102A80000369194214BF01200020704702B90904EC
:102A9000816170474FF0B042D2F88810014200D1F6
:102AA000704708B5C2F8880025F0DEF908BD00BF00
:102AB0002DE9F04790F8B84284B00546012C9DF806
:102AC00030C09DF834E0BDF8389028D001EB810487
:102AD0004FF00108D00902F07F0A85F8B88205EBB3
:102AE000C4044FF0000884F8383084F8391084F8B2
:102AF0003FE084F83CC084F83AA084F83B0084F8B6
:102B00003D80A4F84090CDF800C0CDE901E92868E7
:102B100006F072F885F8B88204B0BDE8F0870220AC
:102B200004B0BDE8F08700BF90F8B832012B0BD09D
:102B3000012310B50446006884F8B83206F0B6F9EF
:102B4000002084F8B80210BD02207047002849D048
:102B50002DE9F04190F8B9328AB00746056803F0D4
:102B6000FF02002B39D003233C46284607F1040816
:102B700087F8B932EB6B6D4613F4807308BF3B6185
:102B800005F0FEFE54F8106B0FCC0FC50FCC0FC52F
:102B900094E8030085E8030030463E466D4698E819
:102BA0000E0005F0A1FE0121386805F0F1FE56F88F
:102BB00010CB0FCE0FC50FCE0FC594E8030085E8EC
:102BC0000300604698E80E0005F084FF0123002012
:102BD00087F8B9320AB0BDE8F08180F8B82269F010
:102BE00067F9C0E701207047F0B501EB81059DF85A
:102BF00014C08C00069E00EBC505BDF81C709DF846
:102C000020E085F83B2085F83F30BCF1000F23D150
:102C10004FF0030C022B85F83DE085F842C025D02B
:102C2000634523D0012B2CD063182824002200EB0D
:102C3000C30304FB010483F8391004F1380183F85D
:102C40005C2083F85D20DA64027C0068C3E91167C8
:102C5000BDE8F04006F05AB84FF0020E85F842E0A9
:102C6000032BE1D8DFE803F0140D0202631800EB38
:102C7000C30302BB93F851503DB1022283F84220B6
:102C8000D2E76318002200EBC30383F84220CBE7AE
:102C9000BCF1010FC8D1002AC6D163189FB9012227
:102CA00000EBC30383F851206318022200EBC30337
:102CB00083F84220B8E793F85020002AE5D002229A
:102CC00083F84220B0E700EBC30393F85120002AB9
:102CD000DBD0E9E72DE9F04F056885B004462846CA
:102CE00005F084FE012802D005B0BDE8F08F206811
:102CF00005F078FE0028F7D0206805F073FE10F488
:102D0000001F206802D04FF40013436105F06AFEF3
:102D100010F4801F206802D04FF48013436105F047
:102D200061FE10F0806F206802D04FF08063436135
:102D300005F058FE10F0020F206801D00223436115
:102D400005F050FE8000266829D4304605F04AFE82
:102D5000C20126683AD4304605F044FE00072ED45E
:102D6000206805F03FFE81016AD42768384605F0E7
:102D700039FEC306B8D52568AB6923F01003AB61F3
:102D80002E6AC6F34341C6F30A17022902D1002F67
:102D900040F00E82AB6943F01003AB61A4E74FF043
:102DA00000537361D5F84034D907CED4204669F07A
:102DB000CDF83046012105F01DFE2668C5E7204606
:102DC00069F0BCF8206808234361CAE7D6F84034AC
:102DD00006F588670293D6F840340393039B23F0EB
:102DE0002E030393029B9B0707D5029BD80700F194
:102DF0001282039B43F002030393029B190715D52C
:102E0000039B43F008030393029B5A0740F1078298
:102E1000A169022900F07582E368012B03D14EF607
:102E20006022C6F80424204669F096F8029B9B06AF
:102E300003D5039B43F020030393039B3B608AE786
:102E4000206806F02DF8A1688046002900F0A280D5
:102E500005F5A06527680026084649E007F5A06A41
:102E60004B010AEB411BDBF80800420760D5042048
:102E7000CBF80800DBF80C0040F00200CBF80C00A7
:102E8000DBF80800800500F1B980DBF80800C20714
:102E900040F185802069002840F025818A00009259
:102EA000009A4FF0010C002002EB010904EBC90964
:102EB000C9F8580089F85DC0CBF808C099F83F20E0
:102EC00012F0FD0F00F05D81032A00F05482012A08
:102ED00099F850A000F062828AF0010A009B0B442E
:102EE00004EBC30181F850A0A0680136B04252D96A
:102EF00006F00F0328FA03F3DA07F6D57301F1B2EF
:102F00005B591B04AAD407F5A06C4FEA411E0CEBD9
:102F10004119D9F8083013F0040317D00423C9F875
:102F20000830D9F80C3043F00203C9F80C30DCE764
:102F3000DBF80800C00500F10981DBF80800820613
:102F400040F1AA802020CBF8080099E7D9F80820A2
:102F500012F0200262D001EB81024FF0200C04EB52
:102F6000C202C9F808C092F83DC0BCF1010FBCD143
:102F700082F83D304FF00203384682F85C30D9F8D1
:102F80000C3043F00203C9F80C3005F08FFF2768BE
:102F9000A068AAE727684FF000737B61E6E6DBF8DC
:102FA0000800800740F1B080DBF80CC08A0001EB1C
:102FB000810000922CF0020204EBC000CBF80C2040
:102FC00090F85D20012A00F0F080052A00F0ED80E5
:102FD000062A00F0EF81082A00F0EC81032A00F0B5
:102FE0003882072A00F0618290F85C200223204694
:102FF000CBF8083068F0AEFFA06876E7DBF80C305D
:10300000384643F00203CBF80C3005F04FFF4FF485
:1030100000732768CBF80830A06866E7D9F8083055
:103020005B0600F10081D9F8083013F4007340F01A
:103030007481D9F80820D20700F1D781D9F8083077
:1030400013F0080340F0E781D9F80820D20640F1D8
:10305000058101EB8102032004EBC202936592F823
:103060003D3082F85D0043B9282303FB014393F808
:103070003C2012B9012283F83D20D9F80C303846A3
:1030800043F00203C9F80C3005F010FF1023276845
:10309000C9F80830A06828E7DBF80800000700F14D
:1030A0004C81DBF8080042057FF5EAAEDBF80C2026
:1030B0003846019342F002070091CBF80C700827C4
:1030C00005F0F4FE00991022019B01EB8100CBF882
:1030D00008204FF4806204EBC00080F85D70276820
:1030E000CBF80820CCE601EB810CDBF810008A005D
:1030F00004EBCC0CC0F3120E0092DCF84800A0EBFD
:103100000E00CCF84C00CBE6DBF8083013F080035F
:1031100040F0DD80DBF80800C20640F1D68001EB0C
:10312000810C04EBCC0C9CF83F00032800F09A8142
:1031300010F0FD0005D12369CCF85800002B00F0F9
:10314000A2811023A068CBF80830CEE601EB8109FC
:103150004FF480724FF0070C384604EBC907CBF8E8
:103160000820019387F85DC0DBF80C70009147F0F0
:103170000207CBF80C7005F099FE2768DDE9001313
:103180007EE6DBF80C303846019143F00203CBF8C1
:103190000C3005F08BFE10232768CBF8083099F827
:1031A00050A001998AF0010A98E680F85C201DE79A
:1031B00006F00F0606EB860804EBC808D8F84410A2
:1031C00000293FF4E7AD284605F5A0653A4605F02D
:1031D000F7FBD8F8440005EB4613D8F84C10D44A56
:1031E00038441B6939444FEA461CC8F844001A4069
:1031F000C8F84C106AB155F80C3023F0804343F006
:10320000004345F80C3098F8503083F0010388F8FB
:1032100050302568BEE5204668F094FEE9E520467A
:1032200068F09EFE02E601EB81034FF0040C384685
:10323000012704EBC30383F85DC083F83D70D9F820
:103240000C709A6547F00207C9F80C7005F02EFE65
:1032500040232768C9F80830A06846E6D9F8083046
:103260001A0600F12E81D9F808305B0500F1408183
:10327000D9F808309A077FF538AED9F80C20282302
:1032800022F0020203FB0143C9F80C2093F85D20F1
:10329000012A00F04F81032A00F04581042A00F042
:1032A0004281052A00F06B81062A00F05281082A2B
:1032B00000F04F8128230222204603FB0143C9F876
:1032C000082093F85C2068F045FEA0680DE601EB4D
:1032D0008103DBF80C2038464FF0060E04EBC303E5
:1032E00042F002029F6DCBF80C20013783F85DE0BD
:1032F0009F6505F0DBFD80232768CBF80830A068C8
:10330000F3E5029B304603F4C023B3F5802F18BFCA
:10331000012105F06FFB266885E5D9F80C303846A9
:1033200043F00203C9F80C3005F0C0FD4FF4007300
:103330002768C9F80830A068D7E5DBF80C2001EB56
:10334000810C38464FF0100E04EBCC0701934FF080
:10335000050942F0020308220091CBF80C3087F8EF
:103360005D90CBF808E0CBF8082005F09FFD2768BA
:10337000DDE9001384E553F80A006246019140F04C
:10338000005043F80A00204689F85CC068F0E2FD6E
:1033900099F850A001998AF0010A9FE58AF001038B
:1033A000204689F85C2089F85030019168F0D2FD00
:1033B000019993E58A000A4404EBC20CDCF858003A
:1033C00001300328CCF858003DD900220420CCF865
:1033D000582002468CF85C0053F80A0020F0804028
:1033E00040F0004043F80A0000E6D9F80CC001EBB9
:1033F0008102384604EBC2074CF00202BB65C9F8F3
:103400000C2005F053FD0123C9F8083087F85D3022
:103410002768A06869E5082338460091C9F8083094
:10342000D9F80C3043F00203C9F80C3005F03EFD2A
:103430000099052201EB810104EBC10383F85D20B3
:103440002768A06851E54FF0020002228CF85C006A
:10345000C2E728204FF0020C022200FB014080F856
:103460005CC0B9E7DBF80C204FF0280E38460EFBA5
:10347000014E42F00207CEF85830CBF80C7005F040
:1034800015FD27685DE628234FF0030C384603FB43
:10349000014383F85DC0DBF80C3043F00203CBF846
:1034A0000C3005F003FD27684BE628204FF0040C94
:1034B00000FB01406246836D80F85CC00133836588
:1034C00094E5D9F80C303846009143F00203C9F86E
:1034D0000C3005F0EBFC282300990620802203FB2A
:1034E000014383F85D00C9F808202768A068FCE460
:1034F000D9F80C3038460091102743F00203C9F880
:103500000C3005F0D3FC282300994FF4806008228A
:10351000C9F8087003FB0143C9F8080083F85D206F
:103520002768A068E1E44FF0020283F85C20C1E65E
:103530000000F81F93F83F0083F85C20821E012AE8
:103540003FF6B8AE93F8512082F0010283F8512083
:10355000B0E6282202FB0142936D0133032B9365F1
:1035600010D900200423906582F85C305CF80E309E
:1035700023F0804343F000434CF80E309AE683F882
:103580005C2097E64FF0020382F85C30EEE700BF64
:1035900038B590F8B832012B0ED0044601250068EA
:1035A00084F8B85205F0E4F92946206805F06AFA73
:1035B000002084F8B80238BD022038BD90F8B83237
:1035C000012B0BD0012310B50446006884F8B832F3
:1035D00005F0CCFC002084F8B80210BD0220704732
:1035E000006805F02FBA00BF01EB810100EBC101BB
:1035F00091F85C00704700BF01EB810100EBC10155
:10360000C86C7047006805F0F1BA00BF006805F0AB
:10361000E1BA00BF2DE9F04180460F4616461D462F
:10362000D8F8003001E06A1C0AD19C6937EA04022C
:103630000CBF01240024B442F5D00020BDE8F08185
:10364000FDF764FC069BC01AA84201D8002DE7D103
:10365000D8F844302021002201200B4388F8402074
:10366000C8F8443088F8411088F84220E6E700BFE7
:10367000F8B506460D461746346801E0681C20D1AF
:10368000A3699906FAD510222023E261E361A369B8
:103690009A0701D50023A362A369DB0724D56368D9
:1036A00000221448202103406360736C86F8402098
:1036B00043F00403736486F8411086F84220012029
:1036C000F8BDFDF723FCC01B854201D3002DD3D1EB
:1036D000736C202100220B4386F84020736486F827
:1036E000411086F84220EAE7A36943F00103A36191
:1036F000D5E700BF00E800FEF8B505460C461646C3
:1037000010E09F69FF0604D5FFF7B2FF002833D110
:103710002B689A69910619D4FDF7F8FB801BA0422B
:1037200009D844B12B683246214628469F697F0755
:10373000E7D50020F8BD6B6C202200210120134347
:1037400085F840106B6485F84120F8BD9A695207EE
:1037500002D52A8D002AECD12024084E0022012017
:10376000DC615968314059606A6485F8402085F809
:10377000414085F84220F8BD0120F8BD00E800FE78
:10378000F8B505460C4616460BE09B69DB0602D5EC
:10379000FFF76EFFD8B9FDF7B9FB801BA04209D82F
:1037A00044B12B683246214628469F69BF06ECD5B6
:1037B0000020F8BD6B6C2021002201200B4385F80E
:1037C00040206B6485F8411085F84220F8BD012047
:1037D000F8BD00BFF8B505460C46174607E09B69E3
:1037E000DE0602D5FFF744FFF0B9631C08D12B6851
:1037F0003A46214628469E69B607F0D50020F8BD16
:10380000FDF784FBC01BA04201D8002CEFD16B6CEC
:103810002021002201200B4385F840206B6485F8AD
:10382000411085F84220F8BD0120F8BD00284DD098
:10383000F8B590F84130044603F0FF02002B40D069
:103840002421E068D4E9003284F841100128196885
:1038500022F0706221F0010119601A619A6822F465
:1038600000429A60A26828D042F4044202289A607A
:1038700002D14FF400625A605A6800211448202790
:10388000A6691043D4E9042558602A43D868E5693D
:1038900042EA0622266A20F400403543D8600846F2
:1038A000DA601D601A6842F001021A60616484F8EF
:1038B0004170216384F84210F8BD42F400429A60DE
:1038C000DAE780F8402064F00BFDB9E7012070478B
:1038D00000800002B0B10268242310B580F84130A6
:1038E0000446136823F00103136064F047FD0023CE
:1038F0006364184684F8413084F84030236384F8C8
:10390000423010BD012070472DE9F047984690F8ED
:10391000413082B0202B0A9E40F0938090F84030D6
:103920000446012B00F08D804FF0010A0F469146AE
:1039300080F840A0FDF7EAFA0546524619234FF4F5
:10394000004120460095FFF765FE002875D1102341
:103950002122C4F8249084F8412084F84230606425
:10396000A4F82A80638D60639BB2FF2B6DD8628DB3
:10397000C7F30903206892B2DFF818E141689A465C
:103980005FFA82FC228501EA0E013F4A43EA0C43BA
:103990000B431A434260DFF80081DFF80091638D2A
:1039A0002A46314620469BB2002B35D0FFF712FF46
:1039B000002842D1626A276812F8011B238DB96280
:1039C000618D013B626201399BB289B223856185B9
:1039D000628D92B2002BE2D1002AE0D0024633463B
:1039E000802120460095FFF715FEFF2228BB638D3E
:1039F0009BB2934239D92168204622852A464B68DA
:103A000003EA080343EA0A0343EA09034B60314629
:103A1000638D9BB2002BC9D1FFF7B2FE68B9236852
:103A200020211A4DD9615A682A405A6084F8411001
:103A300084F8400084F8420000E0012002B0BDE8B4
:103A4000F087022002B0BDE8F0872168C7F30900C3
:103A5000DFF840C0FF224B688246228503EA0C0350
:103A60000B4A03431A434A6095E7628D216892B27C
:103A70004868D3B2228500EA08024AEA03431343A6
:103A800043F000734B608AE70020008200E800FEEC
:103A90000020FF81009800FC009C00FC0000FF015A
:103AA0002DE9F047984690F8413082B0202B0A9ECD
:103AB00040F0938090F840300446012B00F08D8058
:103AC0004FF0010A0F46914680F840A0FDF71EFA1C
:103AD0000546524619234FF4004120460095FFF752
:103AE00099FD002875D110232222C4F8249084F86F
:103AF000412084F842306064A4F82A80638D6063BA
:103B00009BB2FF2B6DD8628DC7F30903206892B278
:103B1000DFF818E141681F465FFA82FC228501EA5E
:103B20000E013F4A43EA0C430B431A434260DFF85D
:103B30000081DFF80091638D2A46314620469BB212
:103B4000002B35D0FFF7D8FD002842D12268636AE8
:103B5000526A1A70618D238D0139626A013B89B204
:103B600001329BB26185618D238589B26262002B2F
:103B7000E1D10029DFD0024633468021204600955E
:103B8000FFF748FDFF2220BB638D9BB2934238D9DB
:103B90002168204622852A464B6803EA08033B43F6
:103BA00043EA09034B603146638D9BB2002BC9D1B8
:103BB000FFF7E6FD68B9236820211A4DD9615A68DC
:103BC0002A405A6084F8411084F8400084F842008A
:103BD00000E0012002B0BDE8F087022002B0BDE89D
:103BE000F0872168C7F30900DFF840C0FF224B6867
:103BF0000746228503EA0C030B4A03431A434A6033
:103C000095E7628D216892B24868D3B2228500EAB6
:103C1000080247EA0343134343F000734B608AE70B
:103C20000024008200E800FE0024FF81009800FCD0
:103C3000009C00FC0000FF012DE9F047002484B047
:103C40000546039490F84100202864D190462A68E4
:103C50001F46936913F400435DD195F84000012895
:103C600059D0C1F30904DFF8189124200121A2469C
:103C700044EA090985F8410085F840106B64EB6857
:103C8000012B0CBF4B464AF420535360FDF73EF91D
:103C9000D5F800C00646DCF81820DCF8183002F031
:103CA000200203F01003134314D17B1C07D0FDF74F
:103CB0002DF9801BB84232D88FB3D5F800C0DCF89C
:103CC0001840DCF8181004F0200401F0100154EA48
:103CD0000103EAD0DCF818203B46009612F01002EF
:103CE00040D0002220212846FFF794FC002837D13D
:103CF000D5F800C010232024CCF81C30CCF81C4090
:103D0000039B434519D0039B01330393039B434516
:103D100005D26246B3E7022004B0BDE8F087202355
:103D20000022012085F841306B6C85F8402043F07B
:103D300020036B6404B0BDE8F087DCF80410024691
:103D40003B4641F480402146CCF8040028460096CA
:103D5000FFF760FC20B9D5F800C0CCF81C40D2E7D2
:103D60000120D9E720212846FFF754FC0028F7D18D
:103D700020232A68D36185F8413085F84000CBE7DD
:103D80000020000290F84120202A21D1034670B47F
:103D9000D5B290F84020012A1CD01A6824200026B1
:103DA00083F841001468304624F00104146014685C
:103DB00024F480541460146821431160116841F0A8
:103DC0000101116083F8415083F8406070BC704776
:103DD00002207047022070BC704700BF90F841205D
:103DE000202A20D1034670B4D6B290F84020012A90
:103DF0001BD01A682420002583F841001468284647
:103E000024F001041460146824F4706444EA01216D
:103E10001160116841F00101116083F8416083F87D
:103E2000405070BC704702207047022070BC704741
:103E30000B4AD2F8F41041F0020110B4C2F8F410A9
:103E400083B0D2F8F420074C02F002020192019BE9
:103E500063681843606003B05DF8044B704700BFAF
:103E60000044025800040058024A136843F4807367
:103E7000136070470048025838B5114BDA68520792
:103E800006D4DB6803F00703181A18BF012038BDF9
:103E9000DA681D4622F007021043D860FDF736F8B5
:103EA000044605E0FDF732F8001BB0F57A7F04D830
:103EB0006B689B04F6D5002038BD012038BD00BFDB
:103EC0000048025838B50B4B9A681D4642F0010273
:103ED0009A60FDF71BF8044605E0FDF717F8001B94
:103EE000B0F57A7F04D8AB68DB03F6D5002038BD87
:103EF000012038BD00480258024AD36843F080735D
:103F0000D3607047004802585E4AF8B5136803F062
:103F10000F03062B0AD8136823F00F0343F007039F
:103F20001360136803F00F03072B22D1FCF7EEFF99
:103F3000554B05461A681C4642F001021A6004E01F
:103F4000FCF7E4FF401B022816D823685E07F7D56C
:103F5000636800254D4843F080434D4A4D496360F6
:103F60004D4B256100680A601A60FCF771FF04463A
:103F700028B101242046F8BD03242046F8BDFCF7F3
:103F8000C5FF414E41F28837054604E0FCF7BEFF0D
:103F9000431BBB42F0D8336913F0380FF6D1FCF75E
:103FA000B5FF32683D4B0546374F1340336004E0A0
:103FB000FCF7ACFF401B6428DED83B689803F7D4BD
:103FC000FCF7A4FF3B6805462F4E23F080733B604F
:103FD00004E0FCF79BFF401B0228CDD83368990111
:103FE000F7D4FCF793FF33680546274F23F080632F
:103FF000336004E0FCF78AFF401B0228BCD83B6812
:104000001A01F7D4FCF782FF3B6806461E4D23F0E9
:1040100080533B6004E0FCF779FF801B0228ABD89B
:104020002B6813F00053F6D11D4A4FF0FF301D49A5
:104030001D4EAB61EB612B62AE62E9622A636B637A
:10404000AA63EB632A646B6429680E4A21F4802119
:1040500029602B66A866D5F8D03043F48033C5F8C4
:10406000D03013681B0785D5136823F00F0343F086
:1040700007031360146804F00F04073C18BF012401
:1040800078E700BF002000520044025804000020DE
:104090000090D003602800206428002045EDF6FF42
:1040A000800201010000FF0100020202002800F06E
:1040B000F781F8B503680446D9072ED5B4490A69D3
:1040C000896A02F03802102A00F02C81182A00F0C8
:1040D00024816368B3F5803F00F06781002B00F016
:1040E0007F81B3F5A02FAA4B1A6800F0788222F4E2
:1040F00080321A601A6822F480221A60FCF706FFE8
:10410000A34E054605E0FCF701FF401B642800F2C2
:10411000658133689F03F6D52368990721D59C4AAA
:104120001369926A13F0380340F0A880984B1B681B
:104130005B0703D5E368002B00F0ED80FCF7FEFE83
:1041400041F20303984200F289812269402A00F07B
:104150004E828F494B6823F47C3343EA02334B6031
:104160002368D90656D41D0717D56369002B00F0C4
:10417000B480874B5A6F1E4642F001025A67FCF723
:10418000C5FE054605E0FCF7C1FE401B022800F213
:104190002581736F9807F6D523689A0617D5A3690A
:1041A000002B00F034817A4B1A681E4642F480528C
:1041B0001A60FCF7ABFE054605E0FCF7A7FE401BC6
:1041C000022800F20B8133689F04F6D52368590753
:1041D00000F1B280606AD8B16D4B1A6902F0380202
:1041E000182A00F0CE811A6802281D4622F080723B
:1041F0001A6000F06181FCF789FE044605E0FCF7D7
:1042000085FE001B022800F2E9802B689B01F6D492
:104210000020F8BD5E4A1369926A03F03803082B48
:1042200072D0182B6CD0E369002B00F00381584B3F
:104230001A681E4642F080021A60FCF767FE0546C7
:1042400005E0FCF763FE401B022800F2C7803368DC
:10425000DB05F6D5FCF772FE41F20303984200F24B
:10426000E981226A7368202A23F0F8430CBF43F0E7
:10427000804343EA82637360236874E7182B00F07D
:104280000B81E268002A00F0F38041490B680E467A
:1042900023F0190313430B60FCF738FE054605E0D5
:1042A000FCF734FE401B022800F2988033685F0759
:1042B000F6D5FCF743FE41F20303984200F2C381B6
:1042C00022697368402A23F47C330CBF43F4003323
:1042D00043EA02337360236843E72D4B5A6F1E464F
:1042E00022F001025A67FCF711FE054604E0FCF7D4
:1042F0000DFE401B022871D8736F9907F7D44BE766
:1043000002F00302012A8ED1214B1B68DA0552D537
:10431000E369802B4FD00120F8BD01F00301022991
:104320007FF4D7AE1A4A126892037FF5F6AE626840
:10433000002A7FF4F2AEEEE7164B1A681E4642F4EE
:1043400080721A60FCF7E2FD054604E0FCF7DEFD32
:10435000401B642842D83368DA05F7D5A368012BDF
:1043600000F07A81002B00F04B81052B084B1A6F6F
:1043700000F0878122F001021A671A6F22F004020E
:104380001A67FCF7C3FD024E41F28837054608E084
:104390000044025800480258FCF7B8FD401BB842E0
:1043A0001CD8336F9B07F7D514E7AE4A136843F464
:1043B00080331360A2E6FCF7C1FD41F2030398428B
:1043C00070D8226A202A00F05381A6494B6823F056
:1043D000F84343EA82634B602368C4E60320F8BDD8
:1043E000A04B1A681E4622F480321A601A6822F422
:1043F00080221A60FCF78AFD054604E0FCF786FD82
:10440000401B6428EAD833689803F7D484E6954BB8
:104410001A681E4622F480521A60FCF777FD0546A2
:1044200004E0FCF773FD401B0228D7D833689804DA
:10443000F7D4CBE68B4B1A681E4622F080021A6036
:10444000FCF764FD054604E0FCF760FD401B022814
:10445000C4D83368DF05F7D4236884E6814A21692C
:10446000536823F0FE4343EA01635360236878E610
:104470007C4B1A681E4622F001021A60FCF746FDCA
:10448000054604E0FCF742FD401B0228A6D833682D
:104490005807F7D4236864E692077FF4F2AE45E646
:1044A000012070476F4A216AD36823F07C5343EAA6
:1044B0000163D360236856E6FCF728FD064604E056
:1044C000FCF724FD801B022888D82B689901F7D4BB
:1044D000AA6A654BA06A1340E26A64490343614ECD
:1044E00043EA0213AB62276BD4E90D32013F501E41
:1044F000013BE26BC7F308075B020004013A9BB281
:1045000000F4FE001206034302F0FE423B43134355
:104510002B63EB6A23F00103EB626A6BA36C11401F
:1045200041EAC3016963EB6A226C23F00C03134375
:10453000EB62EB6A626C23F002031343EB62EB6AFB
:1045400043F48033EB62EB6A43F40033EB62EB6AD3
:1045500043F48023EB62EB6A43F00103EB622B68C8
:1045600043F080732B60FCF7D1FC044605E0FCF7B8
:10457000CDFC001B02283FF631AF33689A01F6D517
:1045800046E601289A6A1D6B3FF443AE02F003032E
:10459000A16A8B427FF4BFAEC2F30512E36A9A426E
:1045A0007FF4B9AE236BC5F30802013B9A427FF456
:1045B000B2AE636BC5F34622013B9A427FF4ABAEC9
:1045C000A36BC5F30642013B9A427FF4A4AEE06BB5
:1045D000C5F306650138281A18BF0120F8BD42F45A
:1045E00080221A601A6842F480321A6086E51D4AF9
:1045F000536823F47C3343F4003353602368B0E5FD
:10460000184B41F288371A6F1E4622F001021A67D2
:104610001A6F22F004021A67FCF778FC054605E0E1
:10462000FCF774FC401BB8423FF6D8AE336F9807D6
:10463000F6D4CFE5F368226A23F07C5343EA0263A1
:10464000F36023688FE57368226923F0FE4343EA31
:1046500002637360236884E5024A136F43F0010329
:1046600013678EE6004402580CFCFFFF0700FFFFB3
:10467000084A536823F0F84343F0804353602368AB
:1046800071E542F004021A671A6F42F001021A67DC
:1046900077E600BF00440258F0B50D4689B01446D5
:1046A000234E00BBD6F8E0304FF48072022703A9F6
:1046B00043F00103C6F8E030D6F8E030039203225D
:1046C00003F001030590079001931A480692019B9D
:1046D0000497FDF7E9FF326922F0FE722A43224374
:1046E000326109B0F0BDD6F8E03002224FF400701C
:1046F000032143F00403C6F8E030D6F8E03004921A
:10470000002203F004030390069103A902930A48D0
:10471000029B05920792FDF7C7FF336923F07E43A2
:1047200043EA050141EAC411316109B0F0BD00BF9F
:10473000004402580000025800080258474A136912
:1047400003F03803102B04D0182B0DD01BB14448B4
:10475000704744487047136899064AD51368424821
:10476000C3F3C103D8407047936A30B4946AD16AE6
:1047700014F47C7FC4F30510556B38D0C5F3CC0519
:1047800001F0010103F0030301FB05F1012B07EE2A
:10479000901AB8EEE77A02D0022B2CD093B307EE32
:1047A000900ADFED326AF8EEE77A136B86EEA76ABD
:1047B000DFED2F5AC3F3080306EE903AB7EE005A26
:1047C000F8EEE66A76EE856AE7EE256A66EE266A18
:1047D000224B1B6BC3F34623013307EE903AB8EE2E
:1047E000E77AC6EE877AFCEEE77A17EE900A30BCDD
:1047F00070471D48704707EE900ADFED1E6AF8EE1D
:10480000E77AD2E713689B0620D5136807EE900A73
:104810001549F7EE004AC3F3C100F8EEE77A136BCF
:10482000C1409FED135AC3F3080306EE101A06EEBB
:10483000903AF8EEC65AF8EEE66A85EEA76A76EE8A
:10484000A46AE7EE056A66EE266AC1E707EE900AFB
:10485000DFED096AF8EEE77AA7E700BF00440258E7
:1048600000093D0000127A000090D0030024744A31
:10487000000000390024F44A0024744C002800F0A1
:104880000E818D4A136803F00F038B422DE9F0412E
:1048900004460D460CD2136823F00F030B4313603C
:1048A000136803F00F038B4202D00120BDE8F081B2
:1048B00023685F070BD5814920698A6902F070027D
:1048C000904204D98A6922F0700202438A611E076D
:1048D0000BD57A496069CA6902F07002904204D926
:1048E000CA6922F070020243CA61D8060BD5734927
:1048F000A069CA6902F4E062904204D9CA6922F44C
:10490000E0620243CA6199060BD56C49E0690A6A04
:1049100002F07002904204D90A6A22F07002024347
:104920000A629A0740F1AD806448E168826902F04A
:104930000F02914204D9826922F00F020A43826178
:10494000D80731D55D4AA168936923F470630B439E
:10495000936161681368022900F0A380032900F0C5
:104960009A80012900F0A38058079ED5534A41F24E
:1049700088381369174623F007030B431361FCF7CC
:10498000C5FA064605E0FCF7C1FA801B404500F277
:104990008C803B69626803F03803B3EBC20FF2D13D
:1049A0002368990706D5E1684448826902F00F023E
:1049B0008A426AD840490A6802F00F02AA420AD91C
:1049C0000A6822F00F022A430A600A6802F00F0206
:1049D000AA427FF46AAF5A070BD5384920698A6921
:1049E00002F07002904204D28A6922F070020243FF
:1049F0008A611F070BD531496069CA6902F07002EC
:104A0000904204D2CA6922F070020243CA61DE06F3
:104A10000BD52A49A069CA6902F4E062904204D227
:104A2000CA6922F4E0620243CA619D060BD5234A9B
:104A3000E169136A03F07003994204D2136A23F008
:104A400070030B431362FFF779FE1C4B02461C48B0
:104A500099699B69C1F303211A4D03F00F031A4CA6
:104A6000415CC35C01F01F01286803F01F03174D70
:104A7000CA4022FA03F32A602360BDE8F041FCF744
:104A8000E7B9DA073FF55EAF94E7826922F00F02DB
:104A9000114381618EE79F013FF568AF05E7012073
:104AA00070479B033FF562AFFFE60320FEE6DE059D
:104AB0003FF55CAFF9E600BF002000520044025809
:104AC00088350D080400002064280020602800209C
:104AD00038B5FFF733FE0B4B0B499A699B69C2F35C
:104AE00003220A4C03F00F03094D8A5CCB5C02F0F1
:104AF0001F0203F01F0320FA02F222FA03F02A60D9
:104B0000206038BD0044025888350D086428002014
:104B10006028002008B5FFF7DBFF054B054ADB697D
:104B2000C3F30213D35C03F01F03D84008BD00BFDA
:104B30000044025888350D0808B5FFF7C9FF054B3A
:104B4000054ADB69C3F30223D35C03F01F03D8409B
:104B500008BD00BF0044025888350D083B4AF8B52F
:104B6000936A03F00303032B69D0136806460F46CC
:104B7000144623F080531360FCF7C8F9054604E09F
:104B8000FCF7C4F9431B022B57D823689A00F7D4CB
:104B9000A36A326823F07C732D4943EA0253A3626F
:104BA0007568D6E90232013D501E013B3269C5F3FA
:104BB00008055B020004013A9BB200F4FE001206F5
:104BC000034302F0FE422B4313432364E36A7269FA
:104BD00023F440631343E362E36AB26923F400738E
:104BE0001343E362E36A23F48073E362626CF36964
:104BF000114041EAC3016164E36A43F48073E362F4
:104C0000E36AF7B1012F0CBF43F4000343F0807354
:104C1000E3620E4B1A681D4642F080521A60FCF7A0
:104C200075F9044604E0FCF771F9001B022804D86A
:104C30002B689B00F7D50020F8BD0320F8BD0120AC
:104C4000F8BD43F48003E362E3E700BF0044025889
:104C50000700FFFF3B4AF8B5936A03F00303032BF9
:104C600069D0136806460F46144623F0806313602C
:104C7000FCF74CF9054604E0FCF748F9431B022B0E
:104C800057D823681A01F7D4A36A326823F47C3317
:104C90002D4943EA0233A3627568D6E90232013D29
:104CA000501E013B3269C5F308055B020004013A5E
:104CB0009BB200F4FE001206034302F0FE422B43B7
:104CC0001343A363E36A726923F0C0031343E362EF
:104CD000E36AB26923F020031343E362E36A23F03B
:104CE0001003E362E26BF369114041EAC301E1633F
:104CF000E36A43F01003E362E36AF7B1012F0CBFEC
:104D000043F4801343F40013E3620E4B1A681D460C
:104D100042F080621A60FCF7F9F8044604E0FCF700
:104D2000F5F8001B022804D82B681B01F7D50020DA
:104D3000F8BD0320F8BD0120F8BD43F40023E36271
:104D4000E3E700BF004402580700FFFF2DE9F843E6
:104D50000368044613F000661CD0426EB2F5001FD3
:104D600000F0B18423D8002A00F0D383B2F5801F6D
:104D700020D102210430FFF76DFF0646002E40F0DF
:104D80009684626E2368AB480026016D21F44011C1
:104D90000A430265DD0511D5626D042A00F2128511
:104DA000DFE812F066046D047D04CA02CA02B2F59F
:104DB000401FE8D0DD054FF00106EDD435469805DB
:104DC0001BD5A26D802A00F04A8400F2EC80002AF4
:104DD00000F09983402A40F0ED800021201DFFF76C
:104DE00039FF23680546002D40F07D839149A06D71
:104DF0000A6D22F4E07202430A6559051FD5D4F802
:104E0000A420B2F5800F00F0418400F2D680002A81
:104E100000F07383B2F5001F40F0D7800021201D01
:104E2000FFF718FF23680546002D40F05E83814997
:104E3000D4F8A4008A6D22F4600202438A651A0540
:104E40001FD5D4F8A820B2F1007F00F0338400F21F
:104E5000BF80002A00F06383B2F1807F40F0C08001
:104E60000021201DFFF7F6FE23680546002D40F0C7
:104E700036837049D4F8A8008A6D22F0E0620243BC
:104E80008A659F0118D5A26C202A00F0898300F260
:104E9000AA803AB1102A40F0A9806649CA6A42F451
:104EA0000032CA62002D40F05D836249A06CCA6C7A
:104EB00022F030020243CA64D8041DD5E26DB2F577
:104EC000005F00F0C48300F29480002A00F00F839A
:104ED000B2F5805F40F095800021201DFFF7BAFEFB
:104EE00023680546002D40F0FC825249E06D0A6DB2
:104EF00022F4E04202430A6599041AD5226EB2F503
:104F0000003F00F08F837FD84AB1B2F5803F40F078
:104F100083800121201DFFF79DFE23680546002D9B
:104F200040F022834349206E0A6D22F4E0220243BE
:104F30000A655A041BD5D4F8AC20B2F1005F00F02A
:104F400041836CD842B1B2F1805F70D10121201D44
:104F5000FFF780FE23680546002D40F0F9823549B1
:104F6000D4F8AC008A6D22F0E04202438A651F0447
:104F70000DD5E26EB2F1805F00F04283B2F1005FC6
:104F800000F0E681002A00F0E98101263546D801CB
:104F90005CD5626C032A00F21B84DFE812F0530038
:104FA0000A034D005300C02A3FF41DAFB2F5807FC5
:104FB0003FF419AF012635461FE7B2F5C00F3FF4A5
:104FC00033AFB2F5000F3FF42FAF0126354636E779
:104FD000B2F1407F3FF44AAFB2F1806F3FF446AF89
:104FE000012635464DE7302A3FF45CAF01263546B1
:104FF00062E7B2F5405F3FF475AFB2F5804F3FF422
:1050000071AF0126354677E722F48031B1F5802F64
:1050100085D0B2F5403F82D00126354689E722F09F
:105020008051B1F1804F97D0B2F1405F94D001260A
:1050300035469CE7004402580221201DFFF70AFE76
:1050400023680546002D00F085822E46590200F1A6
:10505000FF81DF0739D5A26F282A00F26A81DFE8D5
:1050600012F0300068016801680168016801680198
:1050700068014F03680168016801680168016801FF
:105080006801290068016801680168016801680118
:105090006801300068016801680168016801680101
:1050A00068013000680168016801680168016801F1
:1050B00068013000012104F12400FFF74FFD23684F
:1050C0000546002D00F062822E46980716D5626FC5
:1050D000052A00F27A83DFE812F00D00FF020600D5
:1050E0000D000D000D00012104F12400FFF736FD35
:1050F00023680546002D00F023822E46590717D558
:10510000D4F89020052A00F26683DFE812F00D0043
:10511000EF0206000D000D000D00012104F1240036
:10512000FFF71CFD23680546002D00F000822E4687
:105130009A061DD5D4F88C20B2F1005F00F0688289
:1051400000F217814AB1B2F1805F40F01C8100216A
:10515000201DFFF77FFD23680546002D40F00A82E1
:10516000BA49D4F88C004A6D22F0E04202434A6505
:105170005F061DD5D4F89820B2F5006F00F0368296
:1051800000F21F814AB1B2F5806F40F02481002106
:10519000201DFFF75FFD23680546002D40F0E681E6
:1051A000AA49D4F898008A6D22F4E05202438A6535
:1051B00018061DD5D4F89C20B2F5804F00F00C8263
:1051C00000F2F2804AB1B2F5005F40F0F7800021B2
:1051D000201DFFF73FFD23680546002D40F0C881E4
:1051E0009A49D4F89C008A6D22F4604202438A6591
:1051F00019070BD5D4F88010B1F5805F00F01C8240
:105200009248426D22F440520A434265DA060BD5B9
:10521000D4F89410B1F5807F00F0A8828B48826D9D
:1052200022F440720A4382651F030ED5D4F8A01001
:10523000B1F5803F00F0E880B1F5003F00F0EB8071
:10524000002900F081820126354658030FD5D4F895
:105250008420B2F5001F00F0C180B2F5401F00F0BD
:10526000C480B2F5801F00F0788201263546D9034C
:1052700017D5E26C002A00F05582B2F5803F40F06D
:1052800029810221201DFFF7E5FC05462368002D3A
:1052900040F084816D49E06CCA6C22F48032024394
:1052A000CA649A0000F1C6809F0335D4301E18BF2F
:1052B0000120DE0206D56549256F0A6D22F0004205
:1052C0002A430A65DD0007D56049D4F8B4500A695D
:1052D00022F480422A430A61990206D55B49A56EF1
:1052E0000A6D22F080722A430A655A0009D5574A8E
:1052F000116921F4004111611169D4F8B8502943B2
:105300001161002B06DA514A216DD36C23F0405312
:105310000B43D364BDE8F883E26FB2F5807F00F001
:105320000A8233D922F48071B1F5007F30D0012098
:10533000BFE701263546C8E63546002D40F0CD8052
:105340004249606D0A6D22F0070202430A6536E5A4
:105350000121201DFFF77EFC23680546002D40F04B
:10536000E4803A49E06E0A6D22F0405202430A6539
:105370000DE622F08051B1F1804F3FF4EEAEB2F174
:10538000405F3FF4EAAE01263546F1E6002ACED171
:10539000002DCCD12D4D301E696D18BF012021F498
:1053A00040710A436A6584E722F40051B1F5004F69
:1053B0003FF413AFB2F5C04F3FF40FAF01263546AF
:1053C00016E722F48061B1F5805F3FF4E6AEB2F5F6
:1053D000406F3FF4E2AE01263546E9E6012104F1D3
:1053E0002400FFF7BBFB23680546002D40F0C98071
:1053F0001649D4F884004A6D22F4401202434A65EB
:10540000D9037FF54EAF34E7022104F12400FFF702
:10541000A5FB23680546002D40F0AE800B49D4F86B
:10542000A0008A6D22F44032024358038A657FF55A
:105430001EAF0CE7022104F12400FFF78FFB236865
:1054400000283FF431AF01262EE700BF0044025888
:10545000B24B1A68984642F480721A60FBF756FD08
:10546000074605E0FBF752FDC01B642800F252819D
:10547000D8F80030DA05F5D5002D40F0A081A84A13
:10548000D4F8B030116F594011F4407F0BD0116F38
:10549000106F21F4407140F480301067106F20F4D9
:1054A000803010671167B3F5807F00F06A8103F4E4
:1054B0004072B2F5407F00F0788199490A6922F480
:1054C0007C520A61964AC3F30B03116F0B431367B7
:1054D0002368BEE501263546E3E62E466FE42E46F8
:1054E000CFE42E4608E52E4687E42E46A7E48C49F5
:1054F000CA6A42F40032CA62F4E48949CA6A42F4D0
:105500000032CA6290E48649CA6A42F40032CA6232
:1055100069E48348C16A41F40031C16233E48049DF
:10552000CA6A42F40032CA62A0E42E462FE57C49E2
:10553000D4F890008A6D22F0070202438A65F7E5ED
:105540007749606F4A6D22F0070202434A65D5E54C
:105550002E460CE57249606CCA6C22F003020243CD
:10556000CA6473E52E46A7E42E46E2E42E461FE603
:105570002E463DE62E46FBE558032E467FF577AED8
:1055800065E6D9032E467FF58CAE72E66449A06FBE
:105590004A6D22F0380202434A6596E52E4680E6BF
:1055A0000221201DFFF756FB05462368002DD9D1A7
:1055B0007BE45B49CA6A42F40032CA62002D7FF480
:1055C00044ADC7E7012104F12400FFF7C7FA0546FF
:1055D0002368002DBCD1C2E4022104F12400FFF7AE
:1055E000BDFA05462368002DC2D1F9E5022104F178
:1055F0002400FFF7B3FA05462368002DB6D1CFE5A6
:105600004749CA6A42F40032CA62002D8DD1A8E629
:10561000022104F12400FFF7A1FA05462368002DBA
:10562000A8D19DE5012104F12400FFF797FA054672
:105630002368002D98D175E4022104F12400FFF7BE
:105640008DFAD4F8801000B101262368D8E5002136
:1056500004F12400FFF782FA2368054642E40021A2
:1056600004F12400FFF77AFA23680546FFF7BBBB75
:105670002B493546CA6A42F40032CA625DE600210F
:10568000201DFFF7E7FA2368054656E6002104F1DE
:105690002400FFF763FA23680546FFF7C5BB002126
:1056A00004F12400FFF75AFA2368054645E623680B
:1056B000FFF770BB002104F12400FFF74FFA2368C5
:1056C0000546FFF7D3BB02212430FFF747FA064611
:1056D000002E3FF456ABEAE70121201DFFF7BAFA8E
:1056E00005462368002D7FF408AD29E70121201D20
:1056F000FFF7B0FA05462368002D7FF418AD16E7D2
:105700000121201DFFF7A6FA05462368002D7FF42E
:10571000DBAC3BE70326236835469AE40048025891
:10572000004402582D49CA6A42F40032CA62002D70
:105730007FF434AFAEE52948C16A41F40031C1625B
:10574000002D7FF4F4AD25E6201DFFF783FA054612
:105750002368002D7FF410AF60E62049CA6A42F446
:105760000032CA62002D7FF40CAF41E6022104F141
:105770002400FFF7F3F9D4F8941000B10126236850
:105780004CE5FBF7C3FBDFF8548041F2883907464C
:1057900004E0FBF7BBFBC01B4845BBD8D8F8703012
:1057A0009B07F6D5D4F8B03081E60C480C4A016965
:1057B00002EA131221F47C510A43026182E6236853
:1057C0002E4646E40126FFF7F9BA0126354695E450
:1057D000012635463AE401263546A9E4004402583C
:1057E000CFFFFF0008B5FFF773F9054B054A1B6AA9
:1057F000C3F30213D35C03F01F03D84008BD00BFFE
:105800000044025888350D084F4B70B4996A9D6A60
:10581000DC6A15F47C3FC5F30532DE6B5CD0C6F361
:10582000CC06C4F3001401F0030104FB06F40129C3
:1058300007EE904AB8EEE77A03D0022975D0002926
:105840004FD007EE902ADFED416AF8EEE77A9B6BC6
:1058500086EEA76ADFED3E5AC3F3080306EE903AE0
:10586000B7EE005AF8EEE66A76EE856AE7EE256A4C
:1058700066EE266A344AB7EE006A936BC3F346239A
:1058800007EE103AB8EEC77A70BC37EE067AC6EE6D
:10589000877AFCEEE77AC0ED007A936BC3F3064398
:1058A00007EE103AB8EEC77A37EE067AC6EE877A78
:1058B000FCEEE77AC0ED017A936BC3F3066307EE63
:1058C000903AF8EEE77A77EE867A86EEA77ABCEE23
:1058D000C77A80ED027A704770BCC0E9002282600E
:1058E00070471968890627D5196807EE902A194A62
:1058F000F7EE004AC1F3C101F8EEE77A9B6BCA40AC
:105900009FED135AC3F3080306EE102A06EE903AF1
:10591000F8EEC65AF8EEE66A85EEA76A76EEA46A55
:10592000E7EE056A66EE266AA4E707EE902ADFED49
:105930000A6AF8EEE77A8AE707EE902ADFED076A4F
:10594000F8EEE77A83E700BF004402580024744A67
:10595000000000390090D0030024F44A0024744C65
:105960004F4B70B4996A9D6ADC6A15F07C7FC5F371
:1059700005525E6C5CD0C6F3CC06C4F3002401F083
:10598000030104FB06F4012907EE904AB8EEE77A1A
:1059900003D0022975D000294FD007EE902ADFED01
:1059A000416AF8EEE77A1B6C86EEA76ADFED3E5A95
:1059B000C3F3080306EE903AB7EE005AF8EEE66A33
:1059C00076EE856AE7EE256A66EE266A344AB7EE19
:1059D000006A136CC3F3462307EE103AB8EEC77A99
:1059E00070BC37EE067AC6EE877AFCEEE77AC0ED39
:1059F000007A136CC3F3064307EE103AB8EEC77A89
:105A000037EE067AC6EE877AFCEEE77AC0ED017AC9
:105A1000136CC3F3066307EE903AF8EEE77A77EE7D
:105A2000867A86EEA77ABCEEC77A80ED027A704756
:105A300070BCC0E90022826070471968890627D5CA
:105A4000196807EE902A194AF7EE004AC1F3C1011E
:105A5000F8EEE77A1B6CCA409FED135AC3F30803B4
:105A600006EE102A06EE903AF8EEC65AF8EEE66A0E
:105A700085EEA76A76EEA46AE7EE056A66EE266A08
:105A8000A4E707EE902ADFED0A6AF8EEE77A8AE7E4
:105A900007EE902ADFED076AF8EEE77A83E700BFAA
